{
  "address": "0x7A7d451569a06DC8E7052C2BD1C1DC368E3D6936",
  "abi": [
    {
      "inputs": [
        {
          "internalType": "address",
          "name": "_token",
          "type": "address"
        },
        {
          "internalType": "address",
          "name": "_ve",
          "type": "address"
        },
        {
          "internalType": "address",
          "name": "_discountToken",
          "type": "address"
        },
        {
          "internalType": "uint256",
          "name": "_minDuration",
          "type": "uint256"
        },
        {
          "internalType": "uint256",
          "name": "_maxBoost",
          "type": "uint256"
        },
        {
          "internalType": "uint256",
          "name": "_deadline",
          "type": "uint256"
        }
      ],
      "stateMutability": "nonpayable",
      "type": "constructor"
    },
    {
      "anonymous": false,
      "inputs": [
        {
          "indexed": true,
          "internalType": "address",
          "name": "account",
          "type": "address"
        },
        {
          "indexed": false,
          "internalType": "uint256",
          "name": "amount",
          "type": "uint256"
        },
        {
          "indexed": false,
          "internalType": "uint256",
          "name": "discount",
          "type": "uint256"
        },
        {
          "indexed": true,
          "internalType": "uint256",
          "name": "locktime",
          "type": "uint256"
        }
      ],
      "name": "CreateLock",
      "type": "event"
    },
    {
      "anonymous": false,
      "inputs": [
        {
          "indexed": true,
          "internalType": "address",
          "name": "account",
          "type": "address"
        },
        {
          "indexed": false,
          "internalType": "uint256",
          "name": "amount",
          "type": "uint256"
        },
        {
          "indexed": false,
          "internalType": "uint256",
          "name": "discount",
          "type": "uint256"
        }
      ],
      "name": "IncreaseAmount",
      "type": "event"
    },
    {
      "inputs": [
        {
          "internalType": "uint256",
          "name": "amount",
          "type": "uint256"
        },
        {
          "internalType": "uint256",
          "name": "duration",
          "type": "uint256"
        }
      ],
      "name": "createLock",
      "outputs": [],
      "stateMutability": "nonpayable",
      "type": "function"
    },
    {
      "inputs": [
        {
          "internalType": "uint256",
          "name": "amount",
          "type": "uint256"
        },
        {
          "internalType": "uint256",
          "name": "duration",
          "type": "uint256"
        }
      ],
      "name": "createLockDiscounted",
      "outputs": [],
      "stateMutability": "nonpayable",
      "type": "function"
    },
    {
      "inputs": [],
      "name": "deadline",
      "outputs": [
        {
          "internalType": "uint256",
          "name": "",
          "type": "uint256"
        }
      ],
      "stateMutability": "view",
      "type": "function"
    },
    {
      "inputs": [],
      "name": "discountToken",
      "outputs": [
        {
          "internalType": "address",
          "name": "",
          "type": "address"
        }
      ],
      "stateMutability": "view",
      "type": "function"
    },
    {
      "inputs": [
        {
          "internalType": "uint256",
          "name": "amount",
          "type": "uint256"
        }
      ],
      "name": "increaseAmount",
      "outputs": [],
      "stateMutability": "nonpayable",
      "type": "function"
    },
    {
      "inputs": [
        {
          "internalType": "uint256",
          "name": "amount",
          "type": "uint256"
        }
      ],
      "name": "increaseAmountDiscounted",
      "outputs": [],
      "stateMutability": "nonpayable",
      "type": "function"
    },
    {
      "inputs": [],
      "name": "maxBoost",
      "outputs": [
        {
          "internalType": "uint256",
          "name": "",
          "type": "uint256"
        }
      ],
      "stateMutability": "view",
      "type": "function"
    },
    {
      "inputs": [],
      "name": "minDuration",
      "outputs": [
        {
          "internalType": "uint256",
          "name": "",
          "type": "uint256"
        }
      ],
      "stateMutability": "view",
      "type": "function"
    },
    {
      "inputs": [],
      "name": "token",
      "outputs": [
        {
          "internalType": "address",
          "name": "",
          "type": "address"
        }
      ],
      "stateMutability": "view",
      "type": "function"
    },
    {
      "inputs": [],
      "name": "ve",
      "outputs": [
        {
          "internalType": "address",
          "name": "",
          "type": "address"
        }
      ],
      "stateMutability": "view",
      "type": "function"
    }
  ],
  "transactionHash": "0x87bcc7749f316e33e582fc7714dafb1d1c07517fc43775c27e3ec6e6007ead9f",
  "args": [
    "0xf474E526ADe9aD2CC2B66ffCE528B1A51B91FCdC",
    "0xc25e079a84A7Af3015FA21db546b9c6c401a5a36",
    "0xb8b07d0f2990ddd5b99b6db59dd8356ca2b1302d",
    18921600,
    10,
    1655424000
  ],
  "solcInputHash": "9c4443ed2f7a6eed2b1e1e6862325806",
  "bytecode": "0x61018060405234801561001157600080fd5b50604051610cf9380380610cf983398101604081905261003091610157565b6001600160a01b0380871660805280861660a081905290851660c05260408051636db5c8fd60e01b81529051889288928892636db5c8fd916004808201926020929091908290030181865afa15801561008d573d6000803e3d6000fd5b505050506040513d601f19601f820116820180604052508101906100b191906101b6565b60e0818152505060a0516001600160a01b031663947a36fb6040518163ffffffff1660e01b8152600401602060405180830381865afa1580156100f8573d6000803e3d6000fd5b505050506040513d601f19601f8201168201806040525081019061011c91906101b6565b61010052505050610120929092526101405261016052506101cf915050565b80516001600160a01b038116811461015257600080fd5b919050565b60008060008060008060c0878903121561017057600080fd5b6101798761013b565b95506101876020880161013b565b94506101956040880161013b565b9350606087015192506080870151915060a087015190509295509295509295565b6000602082840312156101c857600080fd5b5051919050565b60805160a05160c05160e05161010051610120516101405161016051610a8061027960003960008181610101015281816103ee0152610457015260008181610136015261093001526000818161015d01526104b60152600061079b015260008181610730015261090b0152600081816101bd0152818161022c015261032501526000818160bd0152818161054c015281816106900152610860015260006101e40152610a806000f3fe608060405234801561001057600080fd5b506004361061009e5760003560e01c806383e995a11161006657806383e995a11461017f578063b52c05fe14610192578063e8103656146101a5578063ea61226c146101b8578063fc0c546a146101df57600080fd5b806315456eba146100a35780631f850716146100b857806329dcb0cf146100fc57806337090c2f146101315780635671576114610158575b600080fd5b6100b66100b1366004610970565b610206565b005b6100df7f000000000000000000000000000000000000000000000000000000000000000081565b6040516001600160a01b0390911681526020015b60405180910390f35b6101237f000000000000000000000000000000000000000000000000000000000000000081565b6040519081526020016100f3565b6101237f000000000000000000000000000000000000000000000000000000000000000081565b6101237f000000000000000000000000000000000000000000000000000000000000000081565b6100b661018d366004610989565b610214565b6100b66101a0366004610989565b610301565b6100b66101b3366004610970565b61030d565b6100df7f000000000000000000000000000000000000000000000000000000000000000081565b6100df7f000000000000000000000000000000000000000000000000000000000000000081565b6102118160006103ec565b50565b6040516370a0823160e01b81523360048201526000907f00000000000000000000000000000000000000000000000000000000000000006001600160a01b0316906370a0823190602401602060405180830381865afa15801561027b573d6000803e3d6000fd5b505050506040513d601f19601f8201168201806040525081019061029f91906109ab565b116102f15760405162461bcd60e51b815260206004820152601d60248201527f5645443a20444953434f554e545f544f4b454e5f4e4f545f4f574e454400000060448201526064015b60405180910390fd5b6102fd82826001610455565b5050565b6102fd82826000610455565b6040516370a0823160e01b81523360048201526000907f00000000000000000000000000000000000000000000000000000000000000006001600160a01b0316906370a0823190602401602060405180830381865afa158015610374573d6000803e3d6000fd5b505050506040513d601f19601f8201168201806040525081019061039891906109ab565b116103e55760405162461bcd60e51b815260206004820152601d60248201527f5645443a20444953434f554e545f544f4b454e5f4e4f545f4f574e454400000060448201526064016102e8565b6102118160015b7f0000000000000000000000000000000000000000000000000000000000000000421061044b5760405162461bcd60e51b815260206004820152600d60248201526c109591510e8811561412549151609a1b60448201526064016102e8565b6102fd8282610534565b7f000000000000000000000000000000000000000000000000000000000000000042106104b45760405162461bcd60e51b815260206004820152600d60248201526c109591510e8811561412549151609a1b60448201526064016102e8565b7f00000000000000000000000000000000000000000000000000000000000000008210156105245760405162461bcd60e51b815260206004820152601860248201527f425645443a204455524154494f4e5f544f4f5f53484f5254000000000000000060448201526064016102e8565b61052f83838361072e565b505050565b6040516376b467b760e01b81523360048201526000907f00000000000000000000000000000000000000000000000000000000000000006001600160a01b0316906376b467b790602401602060405180830381865afa15801561059b573d6000803e3d6000fd5b505050506040513d601f19601f820116820180604052508101906105bf91906109ab565b9050600081116106075760405162461bcd60e51b81526020600482015260136024820152721591510e881313d0d2d7d393d517d193d55391606a1b60448201526064016102e8565b60008061061d8561061842866109da565b610906565b91509150831561064157605a6106348360646109f1565b61063e9190610a10565b91505b337f837403c20d32bb2d2c7f2a3d9a0e648369645c6fb8985cc0c5c9ddb0bacc51158361066e84826109da565b6040805192835260208301919091520160405180910390a26001600160a01b037f0000000000000000000000000000000000000000000000000000000000000000166399742dc633846106c185826109da565b6040516001600160e01b031960e086901b1681526001600160a01b03909316600484015260248301919091526044820152606401600060405180830381600087803b15801561070f57600080fd5b505af1158015610723573d6000803e3d6000fd5b505050505050505050565b7f00000000000000000000000000000000000000000000000000000000000000008211156107975760405162461bcd60e51b81526020600482015260166024820152755645443a204455524154494f4e5f544f4f5f4c4f4e4760501b60448201526064016102e8565b60007f0000000000000000000000000000000000000000000000000000000000000000806107c58542610a32565b6107cf9190610a10565b6107d991906109f1565b90506000806107ec8661061842866109da565b91509150831561081057605a6108038360646109f1565b61080d9190610a10565b91505b82337f133e6f671a17d15981c6269ce9d49d721e64d359ebfd0787e56bbe73c15ba0148461083e85826109da565b6040805192835260208301919091520160405180910390a36001600160a01b037f00000000000000000000000000000000000000000000000000000000000000001663a6db822b338461089185826109da565b6040516001600160e01b031960e086901b1681526001600160a01b0390931660048401526024830191909152604482015260648101869052608401600060405180830381600087803b1580156108e657600080fd5b505af11580156108fa573d6000803e3d6000fd5b50505050505050505050565b6000807f0000000000000000000000000000000000000000000000000000000000000000836109557f0000000000000000000000000000000000000000000000000000000000000000876109f1565b61095f91906109f1565b6109699190610a10565b9492505050565b60006020828403121561098257600080fd5b5035919050565b6000806040838503121561099c57600080fd5b50508035926020909101359150565b6000602082840312156109bd57600080fd5b5051919050565b634e487b7160e01b600052601160045260246000fd5b6000828210156109ec576109ec6109c4565b500390565b6000816000190483118215151615610a0b57610a0b6109c4565b500290565b600082610a2d57634e487b7160e01b600052601260045260246000fd5b500490565b60008219821115610a4557610a456109c4565b50019056fea26469706673582212205f16634451ee53b3194ab2f42ca6c19a887223657b85d0076fc1c426994404ca64736f6c634300080e0033",
  "devdoc": {
    "kind": "dev",
    "methods": {},
    "version": 1
  },
  "userdoc": {
    "kind": "user",
    "methods": {},
    "version": 1
  },
  "storageLayout": {
    "storage": [],
    "types": null
  }
}