{
  "address": "0x1c82dfc2AE70E7465889785fA2cd4110087803bf",
  "abi": [
    {
      "inputs": [
        {
          "internalType": "uint256",
          "name": "_amount",
          "type": "uint256"
        },
        {
          "internalType": "uint256",
          "name": "_limit",
          "type": "uint256"
        }
      ],
      "stateMutability": "nonpayable",
      "type": "constructor"
    },
    {
      "anonymous": false,
      "inputs": [
        {
          "indexed": true,
          "internalType": "address",
          "name": "collection",
          "type": "address"
        }
      ],
      "name": "AddCollection",
      "type": "event"
    },
    {
      "anonymous": false,
      "inputs": [
        {
          "indexed": true,
          "internalType": "address",
          "name": "previousOwner",
          "type": "address"
        },
        {
          "indexed": true,
          "internalType": "address",
          "name": "newOwner",
          "type": "address"
        }
      ],
      "name": "OwnershipTransferred",
      "type": "event"
    },
    {
      "anonymous": false,
      "inputs": [
        {
          "indexed": true,
          "internalType": "address",
          "name": "collection",
          "type": "address"
        },
        {
          "indexed": false,
          "internalType": "uint256",
          "name": "tokenId",
          "type": "uint256"
        }
      ],
      "name": "WhitelistNFT",
      "type": "event"
    },
    {
      "inputs": [
        {
          "internalType": "address[]",
          "name": "_collections",
          "type": "address[]"
        }
      ],
      "name": "addCollections",
      "outputs": [],
      "stateMutability": "nonpayable",
      "type": "function"
    },
    {
      "inputs": [],
      "name": "amount",
      "outputs": [
        {
          "internalType": "uint256",
          "name": "",
          "type": "uint256"
        }
      ],
      "stateMutability": "view",
      "type": "function"
    },
    {
      "inputs": [
        {
          "internalType": "address",
          "name": "",
          "type": "address"
        }
      ],
      "name": "collections",
      "outputs": [
        {
          "internalType": "bool",
          "name": "",
          "type": "bool"
        }
      ],
      "stateMutability": "view",
      "type": "function"
    },
    {
      "inputs": [],
      "name": "factory",
      "outputs": [
        {
          "internalType": "address",
          "name": "",
          "type": "address"
        }
      ],
      "stateMutability": "view",
      "type": "function"
    },
    {
      "inputs": [],
      "name": "launch",
      "outputs": [],
      "stateMutability": "nonpayable",
      "type": "function"
    },
    {
      "inputs": [],
      "name": "launchedAt",
      "outputs": [
        {
          "internalType": "uint256",
          "name": "",
          "type": "uint256"
        }
      ],
      "stateMutability": "view",
      "type": "function"
    },
    {
      "inputs": [],
      "name": "limit",
      "outputs": [
        {
          "internalType": "uint256",
          "name": "",
          "type": "uint256"
        }
      ],
      "stateMutability": "view",
      "type": "function"
    },
    {
      "inputs": [],
      "name": "maxDuration",
      "outputs": [
        {
          "internalType": "uint256",
          "name": "",
          "type": "uint256"
        }
      ],
      "stateMutability": "view",
      "type": "function"
    },
    {
      "inputs": [],
      "name": "owner",
      "outputs": [
        {
          "internalType": "address",
          "name": "",
          "type": "address"
        }
      ],
      "stateMutability": "view",
      "type": "function"
    },
    {
      "inputs": [],
      "name": "renounceOwnership",
      "outputs": [],
      "stateMutability": "nonpayable",
      "type": "function"
    },
    {
      "inputs": [
        {
          "internalType": "address",
          "name": "_factory",
          "type": "address"
        }
      ],
      "name": "setFactory",
      "outputs": [],
      "stateMutability": "nonpayable",
      "type": "function"
    },
    {
      "inputs": [],
      "name": "totalNumberWhitelisted",
      "outputs": [
        {
          "internalType": "uint256",
          "name": "",
          "type": "uint256"
        }
      ],
      "stateMutability": "view",
      "type": "function"
    },
    {
      "inputs": [
        {
          "internalType": "address",
          "name": "newOwner",
          "type": "address"
        }
      ],
      "name": "transferOwnership",
      "outputs": [],
      "stateMutability": "nonpayable",
      "type": "function"
    },
    {
      "inputs": [],
      "name": "votingEscrow",
      "outputs": [
        {
          "internalType": "address",
          "name": "",
          "type": "address"
        }
      ],
      "stateMutability": "view",
      "type": "function"
    },
    {
      "inputs": [
        {
          "internalType": "address",
          "name": "collection",
          "type": "address"
        },
        {
          "internalType": "uint256[]",
          "name": "tokenIds",
          "type": "uint256[]"
        }
      ],
      "name": "whitelistNFTs",
      "outputs": [],
      "stateMutability": "nonpayable",
      "type": "function"
    },
    {
      "inputs": [
        {
          "internalType": "address",
          "name": "",
          "type": "address"
        },
        {
          "internalType": "uint256",
          "name": "",
          "type": "uint256"
        }
      ],
      "name": "whitelisted",
      "outputs": [
        {
          "internalType": "bool",
          "name": "",
          "type": "bool"
        }
      ],
      "stateMutability": "view",
      "type": "function"
    },
    {
      "inputs": [
        {
          "internalType": "address",
          "name": "collection",
          "type": "address"
        },
        {
          "internalType": "uint256",
          "name": "tokenId",
          "type": "uint256"
        },
        {
          "internalType": "uint256",
          "name": "dividendRatio",
          "type": "uint256"
        }
      ],
      "name": "wrapNFT",
      "outputs": [],
      "stateMutability": "nonpayable",
      "type": "function"
    },
    {
      "inputs": [
        {
          "internalType": "address",
          "name": "",
          "type": "address"
        },
        {
          "internalType": "uint256",
          "name": "",
          "type": "uint256"
        }
      ],
      "name": "wrapped",
      "outputs": [
        {
          "internalType": "bool",
          "name": "",
          "type": "bool"
        }
      ],
      "stateMutability": "view",
      "type": "function"
    }
  ],
  "transactionHash": "0xee67e9e3d4cecc4c2d548bee0d7934c3c962d15899c4393ea2fb6fa3067d6ac1",
  "args": [
    "33300000000000000000",
    300
  ],
  "solcInputHash": "937b9eced0f8dd1c968e2fb9c7871914",
  "bytecode": "0x60c060405234801561001057600080fd5b5060405161115f38038061115f83398101604081905261002f91610096565b61003833610046565b60809190915260a0526100ba565b600080546001600160a01b038381166001600160a01b0319831681178455604051919092169283917f8be0079c531659141344cd1fd0a4f28419497f9722a3daafe3b4186f6b6457e09190a35050565b600080604083850312156100a957600080fd5b505080516020909101519092909150565b60805160a0516110726100ed6000396000818161026e01526106540152600081816102950152610a5e01526110726000f3fe608060405234801561001057600080fd5b50600436106101165760003560e01c80638da5cb5b116100a2578063a4d66daf11610071578063a4d66daf14610269578063aa8c217c14610290578063bf56b371146102b7578063c45a0155146102c0578063f2fde38b146102d357600080fd5b80638da5cb5b1461022957806396d162981461023a5780639aa0a466146102435780639e29c9cf1461025657600080fd5b80635bb47808116100e95780635bb478081461019b5780636c1cac4a146101ae5780636db5c8fd146101dc578063715018a6146101f357806386019e1d146101fb57600080fd5b806301339c211461011b57806343add2e61461012557806349919e621461015d5780634f2bfe5b14610170575b600080fd5b6101236102e6565b005b610148610133366004610de6565b60066020526000908152604090205460ff1681565b60405190151581526020015b60405180910390f35b61012361016b366004610e56565b61033f565b600254610183906001600160a01b031681565b6040516001600160a01b039091168152602001610154565b6101236101a9366004610de6565b61045c565b6101486101bc366004610e98565b600760209081526000928352604080842090915290825290205460ff1681565b6101e560035481565b604051908152602001610154565b610123610591565b610148610209366004610e98565b600860209081526000928352604080842090915290825290205460ff1681565b6000546001600160a01b0316610183565b6101e560045481565b610123610251366004610ec4565b6105c7565b610123610264366004610f19565b61081b565b6101e57f000000000000000000000000000000000000000000000000000000000000000081565b6101e57f000000000000000000000000000000000000000000000000000000000000000081565b6101e560055481565b600154610183906001600160a01b031681565b6101236102e1366004610de6565b610ae1565b6000546001600160a01b031633146103195760405162461bcd60e51b815260040161031090610f4e565b60405180910390fd5b600554156103395760405162461bcd60e51b815260040161031090610f83565b42600555565b6000546001600160a01b031633146103695760405162461bcd60e51b815260040161031090610f4e565b600554156103895760405162461bcd60e51b815260040161031090610f83565b60005b81811015610457576001600660008585858181106103ac576103ac610fa9565b90506020020160208101906103c19190610de6565b6001600160a01b031681526020810191909152604001600020805460ff19169115159190911790558282828181106103fb576103fb610fa9565b90506020020160208101906104109190610de6565b6001600160a01b03167f6077476a981d09a671dcf75f020b16a4a55b5221b00225c895d94cac2c5a431a60405160405180910390a28061044f81610fd5565b91505061038c565b505050565b6000546001600160a01b031633146104865760405162461bcd60e51b815260040161031090610f4e565b600180546001600160a01b0319166001600160a01b03831690811790915560408051634f2bfe5b60e01b81529051634f2bfe5b916004808201926020929091908290030181865afa1580156104df573d6000803e3d6000fd5b505050506040513d601f19601f820116820180604052508101906105039190610fee565b600260006101000a8154816001600160a01b0302191690836001600160a01b03160217905550806001600160a01b0316636db5c8fd6040518163ffffffff1660e01b8152600401602060405180830381865afa158015610567573d6000803e3d6000fd5b505050506040513d601f19601f8201168201806040525081019061058b919061100b565b60035550565b6000546001600160a01b031633146105bb5760405162461bcd60e51b815260040161031090610f4e565b6105c56000610b7c565b565b600554156105e75760405162461bcd60e51b815260040161031090610f83565b6001600160a01b03831660009081526006602052604090205460ff1661064f5760405162461bcd60e51b815260206004820152601a60248201527f45413a20434f4c4c454354494f4e5f4e4f545f414c4c4f5745440000000000006044820152606401610310565b6004547f00000000000000000000000000000000000000000000000000000000000000009061067f908390611024565b11156106c15760405162461bcd60e51b815260206004820152601160248201527011504e88131253525517d4915050d21151607a1b6044820152606401610310565b60005b818110156107fb57336106ef858585858181106106e3576106e3610fa9565b90506020020135610bcc565b6001600160a01b0316146107355760405162461bcd60e51b815260206004820152600d60248201526c22a09d102327a92124a22222a760991b6044820152606401610310565b6001600160a01b038416600090815260076020526040812060019185858581811061076257610762610fa9565b90506020020135815260200190815260200160002060006101000a81548160ff021916908315150217905550836001600160a01b03167fc8c879fca8136256b50f8a531065e23d65edc1c4e50d34e8b089238493de5d938484848181106107cb576107cb610fa9565b905060200201356040516107e191815260200190565b60405180910390a2806107f381610fd5565b9150506106c4565b5081819050600460008282546108119190611024565b9091555050505050565b6000600554116108605760405162461bcd60e51b815260206004820152601060248201526f11504e881393d517d310555390d2115160821b6044820152606401610310565b6001600160a01b038316600090815260076020908152604080832085845290915290205460ff166108c95760405162461bcd60e51b815260206004820152601360248201527211504e881393d517d5d2125511531254d51151606a1b6044820152606401610310565b6001600160a01b038316600090815260086020908152604080832085845290915290205460ff161561092b5760405162461bcd60e51b815260206004820152600b60248201526a11504e8815d4905414115160aa1b6044820152606401610310565b6001600160a01b03831660009081526008602090815260408083208584529091529020805460ff1916600117905561096583333085610c97565b60015460405163b9a09fd560e01b81526001600160a01b038581166004830152600092169063b9a09fd590602401602060405180830381865afa1580156109b0573d6000803e3d6000fd5b505050506040513d601f19601f820116820180604052508101906109d49190610fee565b60405163a7fce91d60e01b81526004810185905260248101849052336044820152600060648201529091506001600160a01b0382169063a7fce91d90608401600060405180830381600087803b158015610a2d57600080fd5b505af1158015610a41573d6000803e3d6000fd5b505060025460035460405163a6db822b60e01b81523360048201527f000000000000000000000000000000000000000000000000000000000000000060248201819052604482015260648101919091526001600160a01b03909116925063a6db822b91506084015b600060405180830381600087803b158015610ac357600080fd5b505af1158015610ad7573d6000803e3d6000fd5b5050505050505050565b6000546001600160a01b03163314610b0b5760405162461bcd60e51b815260040161031090610f4e565b6001600160a01b038116610b705760405162461bcd60e51b815260206004820152602660248201527f4f776e61626c653a206e6577206f776e657220697320746865207a65726f206160448201526564647265737360d01b6064820152608401610310565b610b7981610b7c565b50565b600080546001600160a01b038381166001600160a01b0319831681178455604051919092169283917f8be0079c531659141344cd1fd0a4f28419497f9722a3daafe3b4186f6b6457e09190a35050565b600073b47e3cd837ddf8e4c57f05d70ab865de6e193bba196001600160a01b03841601610c6457604051630b02f02d60e31b8152600481018390526001600160a01b038416906358178168906024015b602060405180830381865afa158015610c39573d6000803e3d6000fd5b505050506040513d601f19601f82011682018060405250810190610c5d9190610fee565b9050610c91565b6040516331a9108f60e11b8152600481018390526001600160a01b03841690636352211e90602401610c1c565b92915050565b73b47e3cd837ddf8e4c57f05d70ab865de6e193bba196001600160a01b03851601610d8e5760405163104c9fd360e31b8152600481018290526001600160a01b03851690638264fe9890602401600060405180830381600087803b158015610cfe57600080fd5b505af1158015610d12573d6000803e3d6000fd5b505050506001600160a01b0382163014610d89576040516322dca8bb60e21b81526001600160a01b03838116600483015260248201839052851690638b72a2ec90604401600060405180830381600087803b158015610d7057600080fd5b505af1158015610d84573d6000803e3d6000fd5b505050505b610dcb565b604051632142170760e11b81526001600160a01b0384811660048301528381166024830152604482018390528516906342842e0e90606401610aa9565b50505050565b6001600160a01b0381168114610b7957600080fd5b600060208284031215610df857600080fd5b8135610e0381610dd1565b9392505050565b60008083601f840112610e1c57600080fd5b50813567ffffffffffffffff811115610e3457600080fd5b6020830191508360208260051b8501011115610e4f57600080fd5b9250929050565b60008060208385031215610e6957600080fd5b823567ffffffffffffffff811115610e8057600080fd5b610e8c85828601610e0a565b90969095509350505050565b60008060408385031215610eab57600080fd5b8235610eb681610dd1565b946020939093013593505050565b600080600060408486031215610ed957600080fd5b8335610ee481610dd1565b9250602084013567ffffffffffffffff811115610f0057600080fd5b610f0c86828701610e0a565b9497909650939450505050565b600080600060608486031215610f2e57600080fd5b8335610f3981610dd1565b95602085013595506040909401359392505050565b6020808252818101527f4f776e61626c653a2063616c6c6572206973206e6f7420746865206f776e6572604082015260600190565b6020808252600c908201526b11504e881310555390d2115160a21b604082015260600190565b634e487b7160e01b600052603260045260246000fd5b634e487b7160e01b600052601160045260246000fd5b600060018201610fe757610fe7610fbf565b5060010190565b60006020828403121561100057600080fd5b8151610e0381610dd1565b60006020828403121561101d57600080fd5b5051919050565b6000821982111561103757611037610fbf565b50019056fea2646970667358221220ac0d74ae9c58477e91f253bab4d3bb517cd61d98eb5d9b523ab860ff7c1e9e0364736f6c634300080f0033",
  "devdoc": {
    "kind": "dev",
    "methods": {
      "owner()": {
        "details": "Returns the address of the current owner."
      },
      "renounceOwnership()": {
        "details": "Leaves the contract without owner. It will not be possible to call `onlyOwner` functions anymore. Can only be called by the current owner. NOTE: Renouncing ownership will leave the contract without an owner, thereby removing any functionality that is only available to the owner."
      },
      "transferOwnership(address)": {
        "details": "Transfers ownership of the contract to a new account (`newOwner`). Can only be called by the current owner."
      }
    },
    "version": 1
  },
  "userdoc": {
    "kind": "user",
    "methods": {},
    "version": 1
  },
  "storageLayout": {
    "storage": [
      {
        "astId": 7,
        "contract": "contracts/EarlyAccess.sol:EarlyAccess",
        "label": "_owner",
        "offset": 0,
        "slot": "0",
        "type": "t_address"
      },
      {
        "astId": 2952,
        "contract": "contracts/EarlyAccess.sol:EarlyAccess",
        "label": "factory",
        "offset": 0,
        "slot": "1",
        "type": "t_address"
      },
      {
        "astId": 2954,
        "contract": "contracts/EarlyAccess.sol:EarlyAccess",
        "label": "votingEscrow",
        "offset": 0,
        "slot": "2",
        "type": "t_address"
      },
      {
        "astId": 2956,
        "contract": "contracts/EarlyAccess.sol:EarlyAccess",
        "label": "maxDuration",
        "offset": 0,
        "slot": "3",
        "type": "t_uint256"
      },
      {
        "astId": 2958,
        "contract": "contracts/EarlyAccess.sol:EarlyAccess",
        "label": "totalNumberWhitelisted",
        "offset": 0,
        "slot": "4",
        "type": "t_uint256"
      },
      {
        "astId": 2960,
        "contract": "contracts/EarlyAccess.sol:EarlyAccess",
        "label": "launchedAt",
        "offset": 0,
        "slot": "5",
        "type": "t_uint256"
      },
      {
        "astId": 2964,
        "contract": "contracts/EarlyAccess.sol:EarlyAccess",
        "label": "collections",
        "offset": 0,
        "slot": "6",
        "type": "t_mapping(t_address,t_bool)"
      },
      {
        "astId": 2970,
        "contract": "contracts/EarlyAccess.sol:EarlyAccess",
        "label": "whitelisted",
        "offset": 0,
        "slot": "7",
        "type": "t_mapping(t_address,t_mapping(t_uint256,t_bool))"
      },
      {
        "astId": 2976,
        "contract": "contracts/EarlyAccess.sol:EarlyAccess",
        "label": "wrapped",
        "offset": 0,
        "slot": "8",
        "type": "t_mapping(t_address,t_mapping(t_uint256,t_bool))"
      }
    ],
    "types": {
      "t_address": {
        "encoding": "inplace",
        "label": "address",
        "numberOfBytes": "20"
      },
      "t_bool": {
        "encoding": "inplace",
        "label": "bool",
        "numberOfBytes": "1"
      },
      "t_mapping(t_address,t_bool)": {
        "encoding": "mapping",
        "key": "t_address",
        "label": "mapping(address => bool)",
        "numberOfBytes": "32",
        "value": "t_bool"
      },
      "t_mapping(t_address,t_mapping(t_uint256,t_bool))": {
        "encoding": "mapping",
        "key": "t_address",
        "label": "mapping(address => mapping(uint256 => bool))",
        "numberOfBytes": "32",
        "value": "t_mapping(t_uint256,t_bool)"
      },
      "t_mapping(t_uint256,t_bool)": {
        "encoding": "mapping",
        "key": "t_uint256",
        "label": "mapping(uint256 => bool)",
        "numberOfBytes": "32",
        "value": "t_bool"
      },
      "t_uint256": {
        "encoding": "inplace",
        "label": "uint256",
        "numberOfBytes": "32"
      }
    }
  }
}