{
  "address": "0x7e2979cAE78CC88ECd1adEE6e9C5eE642A8ebd27",
  "abi": [
    {
      "inputs": [
        {
          "internalType": "address",
          "name": "_ve",
          "type": "address"
        },
        {
          "internalType": "address",
          "name": "_lpToken",
          "type": "address"
        },
        {
          "internalType": "address",
          "name": "_discountToken",
          "type": "address"
        },
        {
          "internalType": "bool",
          "name": "_isToken1",
          "type": "bool"
        },
        {
          "internalType": "uint256",
          "name": "_minAmount",
          "type": "uint256"
        },
        {
          "internalType": "uint256",
          "name": "_maxBoost",
          "type": "uint256"
        }
      ],
      "stateMutability": "nonpayable",
      "type": "constructor"
    },
    {
      "anonymous": false,
      "inputs": [
        {
          "indexed": true,
          "internalType": "address",
          "name": "account",
          "type": "address"
        },
        {
          "indexed": false,
          "internalType": "uint256",
          "name": "amount",
          "type": "uint256"
        },
        {
          "indexed": false,
          "internalType": "uint256",
          "name": "discount",
          "type": "uint256"
        },
        {
          "indexed": true,
          "internalType": "uint256",
          "name": "locktime",
          "type": "uint256"
        }
      ],
      "name": "CreateLock",
      "type": "event"
    },
    {
      "anonymous": false,
      "inputs": [
        {
          "indexed": true,
          "internalType": "address",
          "name": "account",
          "type": "address"
        },
        {
          "indexed": false,
          "internalType": "uint256",
          "name": "amount",
          "type": "uint256"
        },
        {
          "indexed": false,
          "internalType": "uint256",
          "name": "discount",
          "type": "uint256"
        }
      ],
      "name": "IncreaseAmount",
      "type": "event"
    },
    {
      "anonymous": false,
      "inputs": [
        {
          "indexed": true,
          "internalType": "address",
          "name": "addr",
          "type": "address"
        },
        {
          "indexed": false,
          "internalType": "uint256",
          "name": "amount",
          "type": "uint256"
        },
        {
          "indexed": false,
          "internalType": "uint256",
          "name": "penaltyRate",
          "type": "uint256"
        }
      ],
      "name": "Withdraw",
      "type": "event"
    },
    {
      "inputs": [
        {
          "internalType": "uint256",
          "name": "amount",
          "type": "uint256"
        },
        {
          "internalType": "uint256",
          "name": "duration",
          "type": "uint256"
        }
      ],
      "name": "createLock",
      "outputs": [],
      "stateMutability": "nonpayable",
      "type": "function"
    },
    {
      "inputs": [
        {
          "internalType": "uint256",
          "name": "amount",
          "type": "uint256"
        },
        {
          "internalType": "uint256",
          "name": "duration",
          "type": "uint256"
        }
      ],
      "name": "createLockDiscounted",
      "outputs": [],
      "stateMutability": "nonpayable",
      "type": "function"
    },
    {
      "inputs": [],
      "name": "discountToken",
      "outputs": [
        {
          "internalType": "address",
          "name": "",
          "type": "address"
        }
      ],
      "stateMutability": "view",
      "type": "function"
    },
    {
      "inputs": [
        {
          "internalType": "uint256",
          "name": "amount",
          "type": "uint256"
        }
      ],
      "name": "increaseAmount",
      "outputs": [],
      "stateMutability": "nonpayable",
      "type": "function"
    },
    {
      "inputs": [
        {
          "internalType": "uint256",
          "name": "amount",
          "type": "uint256"
        }
      ],
      "name": "increaseAmountDiscounted",
      "outputs": [],
      "stateMutability": "nonpayable",
      "type": "function"
    },
    {
      "inputs": [
        {
          "internalType": "address",
          "name": "",
          "type": "address"
        }
      ],
      "name": "locked",
      "outputs": [
        {
          "internalType": "uint256",
          "name": "",
          "type": "uint256"
        }
      ],
      "stateMutability": "view",
      "type": "function"
    },
    {
      "inputs": [],
      "name": "lockedTotal",
      "outputs": [
        {
          "internalType": "uint256",
          "name": "",
          "type": "uint256"
        }
      ],
      "stateMutability": "view",
      "type": "function"
    },
    {
      "inputs": [],
      "name": "maxBoost",
      "outputs": [
        {
          "internalType": "uint256",
          "name": "",
          "type": "uint256"
        }
      ],
      "stateMutability": "view",
      "type": "function"
    },
    {
      "inputs": [],
      "name": "minAmount",
      "outputs": [
        {
          "internalType": "uint256",
          "name": "",
          "type": "uint256"
        }
      ],
      "stateMutability": "view",
      "type": "function"
    },
    {
      "inputs": [],
      "name": "token",
      "outputs": [
        {
          "internalType": "address",
          "name": "",
          "type": "address"
        }
      ],
      "stateMutability": "view",
      "type": "function"
    },
    {
      "inputs": [],
      "name": "ve",
      "outputs": [
        {
          "internalType": "address",
          "name": "",
          "type": "address"
        }
      ],
      "stateMutability": "view",
      "type": "function"
    },
    {
      "inputs": [
        {
          "internalType": "address",
          "name": "addr",
          "type": "address"
        },
        {
          "internalType": "uint256",
          "name": "penaltyRate",
          "type": "uint256"
        }
      ],
      "name": "withdraw",
      "outputs": [],
      "stateMutability": "nonpayable",
      "type": "function"
    }
  ],
  "transactionHash": "0x56cf89dffb926e5359801e662dc6df67241784b64479fd7469b6aa450dad5df5",
  "args": [
    "0x77D3d884FeA1E389150a26D4569b20ebA284A86d",
    "0xdE0C1dC7f2b67705Cca50039418715F9C7F8D53B",
    "0xb8b07d0f2990ddd5b99b6db59dd8356ca2b1302d",
    true,
    "333000000000000000",
    "1000000000000000000000"
  ],
  "solcInputHash": "e47e3caa7a97fd9ed213c8c8516f216a",
  "bytecode": "0x6101806040523480156200001257600080fd5b506040516200159238038062001592833981016040819052620000359162000164565b6001600160a01b03808716608081905281871660a05290851660c05260408051636db5c8fd60e01b81529051889288928892636db5c8fd916004808201926020929091908290030181865afa15801562000093573d6000803e3d6000fd5b505050506040513d601f19601f82011682018060405250810190620000b99190620001db565b60e081815250506080516001600160a01b031663947a36fb6040518163ffffffff1660e01b8152600401602060405180830381865afa15801562000101573d6000803e3d6000fd5b505050506040513d601f19601f82011682018060405250810190620001279190620001db565b6101005250505091151561012052610140526101605250620001f5915050565b80516001600160a01b03811681146200015f57600080fd5b919050565b60008060008060008060c087890312156200017e57600080fd5b620001898762000147565b9550620001996020880162000147565b9450620001a96040880162000147565b935060608701518015158114620001bf57600080fd5b809350506080870151915060a087015190509295509295509295565b600060208284031215620001ee57600080fd5b5051919050565b60805160a05160c05160e051610100516101205161014051610160516112d6620002bc600039600081816101170152610e5601526000818161015f015281816105ba015261069c01526000610d6301526000610a8a01526000610a1f0152600081816101cc01528181610257015261035001526000818161020f01528181610548015281816106720152818161075501528181610cda0152610da601526000818160d301528181610426015281816107fd015281816109410152610b5901526112d66000f3fe608060405234801561001057600080fd5b50600436106100b45760003560e01c8063cbf9fe5f11610071578063cbf9fe5f14610194578063e8103656146101b4578063ea61226c146101c7578063f145c73b146101ee578063f3fef3a3146101f7578063fc0c546a1461020a57600080fd5b806315456eba146100b95780631f850716146100ce57806337090c2f1461011257806383e995a1146101475780639b2cb5d81461015a578063b52c05fe14610181575b600080fd5b6100cc6100c7366004611061565b610231565b005b6100f57f000000000000000000000000000000000000000000000000000000000000000081565b6040516001600160a01b0390911681526020015b60405180910390f35b6101397f000000000000000000000000000000000000000000000000000000000000000081565b604051908152602001610109565b6100cc61015536600461107a565b61023f565b6101397f000000000000000000000000000000000000000000000000000000000000000081565b6100cc61018f36600461107a565b61032c565b6101396101a23660046110b8565b60016020526000908152604090205481565b6100cc6101c2366004611061565b610338565b6100f57f000000000000000000000000000000000000000000000000000000000000000081565b61013960005481565b6100cc6102053660046110d3565b61041b565b6100f57f000000000000000000000000000000000000000000000000000000000000000081565b61023c8160006105b8565b50565b6040516370a0823160e01b81523360048201526000907f00000000000000000000000000000000000000000000000000000000000000006001600160a01b0316906370a0823190602401602060405180830381865afa1580156102a6573d6000803e3d6000fd5b505050506040513d601f19601f820116820180604052508101906102ca91906110fd565b1161031c5760405162461bcd60e51b815260206004820152601d60248201527f5645443a20444953434f554e545f544f4b454e5f4e4f545f4f574e454400000060448201526064015b60405180910390fd5b6103288282600161069a565b5050565b6103288282600061069a565b6040516370a0823160e01b81523360048201526000907f00000000000000000000000000000000000000000000000000000000000000006001600160a01b0316906370a0823190602401602060405180830381865afa15801561039f573d6000803e3d6000fd5b505050506040513d601f19601f820116820180604052508101906103c391906110fd565b116104105760405162461bcd60e51b815260206004820152601d60248201527f5645443a20444953434f554e545f544f4b454e5f4e4f545f4f574e45440000006044820152606401610313565b61023c8160016105b8565b336001600160a01b037f000000000000000000000000000000000000000000000000000000000000000016146104865760405162461bcd60e51b815260206004820152601060248201526f2629ab22a21d102327a92124a22222a760811b6044820152606401610313565b6001600160a01b038216600090815260016020526040902054806104e45760405162461bcd60e51b81526020600482015260156024820152741314d591510e881313d0d2d7d393d517d193d55391605a1b6044820152606401610313565b806000808282546104f5919061112c565b90915550506001600160a01b03831660009081526001602052604081205561056f83670de0b6b3a764000061052a858261112c565b6105349085611143565b61053e9190611162565b6001600160a01b037f0000000000000000000000000000000000000000000000000000000000000000169190610782565b60408051828152602081018490526001600160a01b038516917ff279e6a1f5e320cca91135676d9cb6e44ca8a08c0b88342bcdb1144f6511b568910160405180910390a2505050565b7f00000000000000000000000000000000000000000000000000000000000000008210156106205760405162461bcd60e51b81526020600482015260156024820152744c535645443a20414d4f554e545f544f4f5f4c4f5760581b6044820152606401610313565b61062a82826107e5565b8160008082825461063b9190611184565b9091555050336000908152600160205260408120805484929061065f908490611184565b9091555061032890506001600160a01b037f0000000000000000000000000000000000000000000000000000000000000000163330856109df565b7f00000000000000000000000000000000000000000000000000000000000000008310156107025760405162461bcd60e51b81526020600482015260156024820152744c535645443a20414d4f554e545f544f4f5f4c4f5760581b6044820152606401610313565b61070d838383610a1d565b8260008082825461071e9190611184565b90915550503360009081526001602052604081208054859290610742908490611184565b9091555061077d90506001600160a01b037f0000000000000000000000000000000000000000000000000000000000000000163330866109df565b505050565b6040516001600160a01b03831660248201526044810182905261077d90849063a9059cbb60e01b906064015b60408051601f198184030181529190526020810180516001600160e01b03166001600160e01b031990931692909217909152610c00565b6040516376b467b760e01b81523360048201526000907f00000000000000000000000000000000000000000000000000000000000000006001600160a01b0316906376b467b790602401602060405180830381865afa15801561084c573d6000803e3d6000fd5b505050506040513d601f19601f8201168201806040525081019061087091906110fd565b9050600081116108b85760405162461bcd60e51b81526020600482015260136024820152721591510e881313d0d2d7d393d517d193d55391606a1b6044820152606401610313565b6000806108ce856108c9428661112c565b610cd2565b9150915083156108f257605a6108e5836064611143565b6108ef9190611162565b91505b337f837403c20d32bb2d2c7f2a3d9a0e648369645c6fb8985cc0c5c9ddb0bacc51158361091f848261112c565b6040805192835260208301919091520160405180910390a26001600160a01b037f0000000000000000000000000000000000000000000000000000000000000000166399742dc63384610972858261112c565b6040516001600160e01b031960e086901b1681526001600160a01b03909316600484015260248301919091526044820152606401600060405180830381600087803b1580156109c057600080fd5b505af11580156109d4573d6000803e3d6000fd5b505050505050505050565b6040516001600160a01b0380851660248301528316604482015260648101829052610a179085906323b872dd60e01b906084016107ae565b50505050565b7f0000000000000000000000000000000000000000000000000000000000000000821115610a865760405162461bcd60e51b81526020600482015260166024820152755645443a204455524154494f4e5f544f4f5f4c4f4e4760501b6044820152606401610313565b60007f000000000000000000000000000000000000000000000000000000000000000080610ab48542611184565b610abe9190611162565b610ac89190611143565b90506000610ad6428361112c565b9050600080610ae58784610cd2565b915091508415610b0957605a610afc836064611143565b610b069190611162565b91505b83337f133e6f671a17d15981c6269ce9d49d721e64d359ebfd0787e56bbe73c15ba01484610b37858261112c565b6040805192835260208301919091520160405180910390a36001600160a01b037f00000000000000000000000000000000000000000000000000000000000000001663a6db822b3384610b8a858261112c565b6040516001600160e01b031960e086901b1681526001600160a01b0390931660048401526024830191909152604482015260648101869052608401600060405180830381600087803b158015610bdf57600080fd5b505af1158015610bf3573d6000803e3d6000fd5b5050505050505050505050565b6000610c55826040518060400160405280602081526020017f5361666545524332303a206c6f772d6c6576656c2063616c6c206661696c6564815250856001600160a01b0316610ede9092919063ffffffff16565b80519091501561077d5780806020019051810190610c73919061119c565b61077d5760405162461bcd60e51b815260206004820152602a60248201527f5361666545524332303a204552433230206f7065726174696f6e20646964206e6044820152691bdd081cdd58d8d9595960b21b6064820152608401610313565b6000806000807f00000000000000000000000000000000000000000000000000000000000000006001600160a01b0316630902f1ac6040518163ffffffff1660e01b8152600401606060405180830381865afa158015610d36573d6000803e3d6000fd5b505050506040513d601f19601f82011682018060405250810190610d5a91906111d5565b509150915060007f0000000000000000000000000000000000000000000000000000000000000000610d9557826001600160701b0316610da0565b816001600160701b03165b905060007f00000000000000000000000000000000000000000000000000000000000000006001600160a01b03166318160ddd6040518163ffffffff1660e01b8152600401602060405180830381865afa158015610e02573d6000803e3d6000fd5b505050506040513d601f19601f82011682018060405250810190610e2691906110fd565b9050600081610e35848b611143565b610e3f9190611162565b9050818260005484610e51919061112c565b610e7b7f000000000000000000000000000000000000000000000000000000000000000085611143565b610e859190611143565b610e8f9190611162565b610e999190611162565b610ea39082611184565b96506000600a610eb58361014d611143565b610ebf9190611162565b905080881115610ecd578097505b600096505050505050509250929050565b6060610eed8484600085610ef7565b90505b9392505050565b606082471015610f585760405162461bcd60e51b815260206004820152602660248201527f416464726573733a20696e73756666696369656e742062616c616e636520666f6044820152651c8818d85b1b60d21b6064820152608401610313565b6001600160a01b0385163b610faf5760405162461bcd60e51b815260206004820152601d60248201527f416464726573733a2063616c6c20746f206e6f6e2d636f6e74726163740000006044820152606401610313565b600080866001600160a01b03168587604051610fcb9190611251565b60006040518083038185875af1925050503d8060008114611008576040519150601f19603f3d011682016040523d82523d6000602084013e61100d565b606091505b509150915061101d828286611028565b979650505050505050565b60608315611037575081610ef0565b8251156110475782518084602001fd5b8160405162461bcd60e51b8152600401610313919061126d565b60006020828403121561107357600080fd5b5035919050565b6000806040838503121561108d57600080fd5b50508035926020909101359150565b80356001600160a01b03811681146110b357600080fd5b919050565b6000602082840312156110ca57600080fd5b610ef08261109c565b600080604083850312156110e657600080fd5b6110ef8361109c565b946020939093013593505050565b60006020828403121561110f57600080fd5b5051919050565b634e487b7160e01b600052601160045260246000fd5b60008282101561113e5761113e611116565b500390565b600081600019048311821515161561115d5761115d611116565b500290565b60008261117f57634e487b7160e01b600052601260045260246000fd5b500490565b6000821982111561119757611197611116565b500190565b6000602082840312156111ae57600080fd5b81518015158114610ef057600080fd5b80516001600160701b03811681146110b357600080fd5b6000806000606084860312156111ea57600080fd5b6111f3846111be565b9250611201602085016111be565b9150604084015163ffffffff8116811461121a57600080fd5b809150509250925092565b60005b83811015611240578181015183820152602001611228565b83811115610a175750506000910152565b60008251611263818460208701611225565b9190910192915050565b602081526000825180602084015261128c816040850160208701611225565b601f01601f1916919091016040019291505056fea264697066735822122035deaa58a085f82069613e6e4eaab007cee69d167e4136861d2a56f3c14f607c64736f6c634300080e0033",
  "devdoc": {
    "kind": "dev",
    "methods": {},
    "version": 1
  },
  "userdoc": {
    "kind": "user",
    "methods": {},
    "version": 1
  },
  "storageLayout": {
    "storage": [
      {
        "astId": 2796,
        "contract": "contracts/LPVotingEscrowDelegate.sol:LPVotingEscrowDelegate",
        "label": "lockedTotal",
        "offset": 0,
        "slot": "0",
        "type": "t_uint256"
      },
      {
        "astId": 2800,
        "contract": "contracts/LPVotingEscrowDelegate.sol:LPVotingEscrowDelegate",
        "label": "locked",
        "offset": 0,
        "slot": "1",
        "type": "t_mapping(t_address,t_uint256)"
      }
    ],
    "types": {
      "t_address": {
        "encoding": "inplace",
        "label": "address",
        "numberOfBytes": "20"
      },
      "t_mapping(t_address,t_uint256)": {
        "encoding": "mapping",
        "key": "t_address",
        "label": "mapping(address => uint256)",
        "numberOfBytes": "32",
        "value": "t_uint256"
      },
      "t_uint256": {
        "encoding": "inplace",
        "label": "uint256",
        "numberOfBytes": "32"
      }
    }
  }
}