{
  "address": "0xfFA76AF65073261080862c6476217f70A8cB6333",
  "abi": [
    {
      "inputs": [
        {
          "internalType": "address",
          "name": "_lpToken",
          "type": "address"
        },
        {
          "internalType": "address",
          "name": "_ve",
          "type": "address"
        },
        {
          "internalType": "address",
          "name": "_discountToken",
          "type": "address"
        },
        {
          "internalType": "bool",
          "name": "_isToken1",
          "type": "bool"
        },
        {
          "internalType": "uint256",
          "name": "_minAmount",
          "type": "uint256"
        },
        {
          "internalType": "uint256",
          "name": "_maxBoost",
          "type": "uint256"
        }
      ],
      "stateMutability": "nonpayable",
      "type": "constructor"
    },
    {
      "anonymous": false,
      "inputs": [
        {
          "indexed": true,
          "internalType": "address",
          "name": "account",
          "type": "address"
        },
        {
          "indexed": false,
          "internalType": "uint256",
          "name": "amount",
          "type": "uint256"
        },
        {
          "indexed": false,
          "internalType": "uint256",
          "name": "discount",
          "type": "uint256"
        },
        {
          "indexed": true,
          "internalType": "uint256",
          "name": "locktime",
          "type": "uint256"
        }
      ],
      "name": "CreateLock",
      "type": "event"
    },
    {
      "anonymous": false,
      "inputs": [
        {
          "indexed": true,
          "internalType": "address",
          "name": "account",
          "type": "address"
        },
        {
          "indexed": false,
          "internalType": "uint256",
          "name": "amount",
          "type": "uint256"
        },
        {
          "indexed": false,
          "internalType": "uint256",
          "name": "discount",
          "type": "uint256"
        }
      ],
      "name": "IncreaseAmount",
      "type": "event"
    },
    {
      "anonymous": false,
      "inputs": [
        {
          "indexed": true,
          "internalType": "address",
          "name": "account",
          "type": "address"
        },
        {
          "indexed": false,
          "internalType": "uint256",
          "name": "amount",
          "type": "uint256"
        }
      ],
      "name": "Withdraw",
      "type": "event"
    },
    {
      "inputs": [
        {
          "internalType": "uint256",
          "name": "amount",
          "type": "uint256"
        },
        {
          "internalType": "uint256",
          "name": "duration",
          "type": "uint256"
        }
      ],
      "name": "createLock",
      "outputs": [],
      "stateMutability": "nonpayable",
      "type": "function"
    },
    {
      "inputs": [
        {
          "internalType": "uint256",
          "name": "amount",
          "type": "uint256"
        },
        {
          "internalType": "uint256",
          "name": "duration",
          "type": "uint256"
        }
      ],
      "name": "createLockDiscounted",
      "outputs": [],
      "stateMutability": "nonpayable",
      "type": "function"
    },
    {
      "inputs": [],
      "name": "discountToken",
      "outputs": [
        {
          "internalType": "address",
          "name": "",
          "type": "address"
        }
      ],
      "stateMutability": "view",
      "type": "function"
    },
    {
      "inputs": [
        {
          "internalType": "uint256",
          "name": "amount",
          "type": "uint256"
        }
      ],
      "name": "increaseAmount",
      "outputs": [],
      "stateMutability": "nonpayable",
      "type": "function"
    },
    {
      "inputs": [
        {
          "internalType": "uint256",
          "name": "amount",
          "type": "uint256"
        }
      ],
      "name": "increaseAmountDiscounted",
      "outputs": [],
      "stateMutability": "nonpayable",
      "type": "function"
    },
    {
      "inputs": [
        {
          "internalType": "address",
          "name": "",
          "type": "address"
        }
      ],
      "name": "locked",
      "outputs": [
        {
          "internalType": "uint256",
          "name": "",
          "type": "uint256"
        }
      ],
      "stateMutability": "view",
      "type": "function"
    },
    {
      "inputs": [],
      "name": "lockedTotal",
      "outputs": [
        {
          "internalType": "uint256",
          "name": "",
          "type": "uint256"
        }
      ],
      "stateMutability": "view",
      "type": "function"
    },
    {
      "inputs": [],
      "name": "maxBoost",
      "outputs": [
        {
          "internalType": "uint256",
          "name": "",
          "type": "uint256"
        }
      ],
      "stateMutability": "view",
      "type": "function"
    },
    {
      "inputs": [],
      "name": "minAmount",
      "outputs": [
        {
          "internalType": "uint256",
          "name": "",
          "type": "uint256"
        }
      ],
      "stateMutability": "view",
      "type": "function"
    },
    {
      "inputs": [],
      "name": "token",
      "outputs": [
        {
          "internalType": "address",
          "name": "",
          "type": "address"
        }
      ],
      "stateMutability": "view",
      "type": "function"
    },
    {
      "inputs": [],
      "name": "ve",
      "outputs": [
        {
          "internalType": "address",
          "name": "",
          "type": "address"
        }
      ],
      "stateMutability": "view",
      "type": "function"
    },
    {
      "inputs": [],
      "name": "withdraw",
      "outputs": [],
      "stateMutability": "nonpayable",
      "type": "function"
    }
  ],
  "transactionHash": "0x5cfe2bea48c4f7443e819b5a83a01d0d993adf458b9520ce3c76eae7626ee3dd",
  "args": [
    "0xdE0C1dC7f2b67705Cca50039418715F9C7F8D53B",
    "0xc25e079a84A7Af3015FA21db546b9c6c401a5a36",
    "0xb8b07d0f2990ddd5b99b6db59dd8356ca2b1302d",
    true,
    "333000000000000000",
    "1000000000000000000000"
  ],
  "solcInputHash": "9c4443ed2f7a6eed2b1e1e6862325806",
  "bytecode": "0x6101806040523480156200001257600080fd5b506040516200172138038062001721833981016040819052620000359162000164565b6001600160a01b0380871660805280861660a081905290851660c05260408051636db5c8fd60e01b81529051889288928892636db5c8fd916004808201926020929091908290030181865afa15801562000093573d6000803e3d6000fd5b505050506040513d601f19601f82011682018060405250810190620000b99190620001db565b60e0818152505060a0516001600160a01b031663947a36fb6040518163ffffffff1660e01b8152600401602060405180830381865afa15801562000101573d6000803e3d6000fd5b505050506040513d601f19601f82011682018060405250810190620001279190620001db565b6101005250505091151561012052610140526101605250620001f5915050565b80516001600160a01b03811681146200015f57600080fd5b919050565b60008060008060008060c087890312156200017e57600080fd5b620001898762000147565b9550620001996020880162000147565b9450620001a96040880162000147565b935060608701518015158114620001bf57600080fd5b809350506080870151915060a087015190509295509295509295565b600060208284031215620001ee57600080fd5b5051919050565b60805160a05160c05160e05161010051610120516101405161016051611457620002ca600039600081816101170152610fe401526000818161016701528181610753015261089d01526000610ef101526000610cf501526000610c8a0152600081816101d401528181610596015261068a01526000818160d30152818161024c015281816102c6015281816103cc0152818161099601528181610ada0152610dba015260008181610204015281816105160152818161080b0152818161095601528181610e680152610f3401526114576000f3fe608060405234801561001057600080fd5b50600436106100b45760003560e01c8063b52c05fe11610071578063b52c05fe14610189578063cbf9fe5f1461019c578063e8103656146101bc578063ea61226c146101cf578063f145c73b146101f6578063fc0c546a146101ff57600080fd5b806315456eba146100b95780631f850716146100ce57806337090c2f146101125780633ccfd60b1461014757806383e995a11461014f5780639b2cb5d814610162575b600080fd5b6100cc6100c73660046111ef565b610226565b005b6100f57f000000000000000000000000000000000000000000000000000000000000000081565b6040516001600160a01b0390911681526020015b60405180910390f35b6101397f000000000000000000000000000000000000000000000000000000000000000081565b604051908152602001610109565b6100cc610234565b6100cc61015d366004611208565b61057e565b6101397f000000000000000000000000000000000000000000000000000000000000000081565b6100cc610197366004611208565b610666565b6101396101aa36600461123f565b60016020526000908152604090205481565b6100cc6101ca3660046111ef565b610672565b6100f57f000000000000000000000000000000000000000000000000000000000000000081565b61013960005481565b6100f57f000000000000000000000000000000000000000000000000000000000000000081565b610231816000610751565b50565b6040516325d052f760e11b81523360048201526000907f00000000000000000000000000000000000000000000000000000000000000006001600160a01b031690634ba0a5ee90602401602060405180830381865afa15801561029b573d6000803e3d6000fd5b505050506040513d601f19601f820116820180604052508101906102bf919061125c565b156103b7577f00000000000000000000000000000000000000000000000000000000000000006001600160a01b0316637cd07e476040518163ffffffff1660e01b8152600401602060405180830381865afa158015610322573d6000803e3d6000fd5b505050506040513d601f19601f82011682018060405250810190610346919061127e565b6040516376b467b760e01b81523360048201526001600160a01b0391909116906376b467b790602401602060405180830381865afa15801561038c573d6000803e3d6000fd5b505050506040513d601f19601f820116820180604052508101906103b0919061129b565b9050610442565b6040516376b467b760e01b81523360048201527f00000000000000000000000000000000000000000000000000000000000000006001600160a01b0316906376b467b790602401602060405180830381865afa15801561041b573d6000803e3d6000fd5b505050506040513d601f19601f8201168201806040525081019061043f919061129b565b90505b80156104955760405162461bcd60e51b815260206004820152601a60248201527f4c535645443a204558495354494e475f4c4f434b5f464f554e4400000000000060448201526064015b60405180910390fd5b33600090815260016020526040902054806104ea5760405162461bcd60e51b81526020600482015260156024820152741314d591510e881313d0d2d7d393d517d193d55391605a1b604482015260640161048c565b806000808282546104fb91906112ca565b909155505033600081815260016020526040812055610545907f00000000000000000000000000000000000000000000000000000000000000006001600160a01b03169083610833565b60405181815233907f884edad9ce6fa2440d8a54cc123490eb96d2768479d49ff9c7366125a94243649060200160405180910390a25050565b6040516370a0823160e01b81523360048201526000907f00000000000000000000000000000000000000000000000000000000000000006001600160a01b0316906370a0823190602401602060405180830381865afa1580156105e5573d6000803e3d6000fd5b505050506040513d601f19601f82011682018060405250810190610609919061129b565b116106565760405162461bcd60e51b815260206004820152601d60248201527f5645443a20444953434f554e545f544f4b454e5f4e4f545f4f574e4544000000604482015260640161048c565b6106628282600161089b565b5050565b6106628282600061089b565b6040516370a0823160e01b81523360048201526000907f00000000000000000000000000000000000000000000000000000000000000006001600160a01b0316906370a0823190602401602060405180830381865afa1580156106d9573d6000803e3d6000fd5b505050506040513d601f19601f820116820180604052508101906106fd919061129b565b1161074a5760405162461bcd60e51b815260206004820152601d60248201527f5645443a20444953434f554e545f544f4b454e5f4e4f545f4f574e4544000000604482015260640161048c565b6102318160015b7f00000000000000000000000000000000000000000000000000000000000000008210156107b95760405162461bcd60e51b81526020600482015260156024820152744c535645443a20414d4f554e545f544f4f5f4c4f5760581b604482015260640161048c565b6107c3828261097e565b816000808282546107d491906112e1565b909155505033600090815260016020526040812080548492906107f89084906112e1565b9091555061066290506001600160a01b037f000000000000000000000000000000000000000000000000000000000000000016333085610b78565b6040516001600160a01b03831660248201526044810182905261089690849063a9059cbb60e01b906064015b60408051601f198184030181529190526020810180516001600160e01b03166001600160e01b031990931692909217909152610bb6565b505050565b7f00000000000000000000000000000000000000000000000000000000000000008310156109035760405162461bcd60e51b81526020600482015260156024820152744c535645443a20414d4f554e545f544f4f5f4c4f5760581b604482015260640161048c565b61090e838383610c88565b8260008082825461091f91906112e1565b909155505033600090815260016020526040812080548592906109439084906112e1565b9091555061089690506001600160a01b037f000000000000000000000000000000000000000000000000000000000000000016333086610b78565b6040516376b467b760e01b81523360048201526000907f00000000000000000000000000000000000000000000000000000000000000006001600160a01b0316906376b467b790602401602060405180830381865afa1580156109e5573d6000803e3d6000fd5b505050506040513d601f19601f82011682018060405250810190610a09919061129b565b905060008111610a515760405162461bcd60e51b81526020600482015260136024820152721591510e881313d0d2d7d393d517d193d55391606a1b604482015260640161048c565b600080610a6785610a6242866112ca565b610e60565b915091508315610a8b57605a610a7e8360646112f9565b610a889190611318565b91505b337f837403c20d32bb2d2c7f2a3d9a0e648369645c6fb8985cc0c5c9ddb0bacc511583610ab884826112ca565b6040805192835260208301919091520160405180910390a26001600160a01b037f0000000000000000000000000000000000000000000000000000000000000000166399742dc63384610b0b85826112ca565b6040516001600160e01b031960e086901b1681526001600160a01b03909316600484015260248301919091526044820152606401600060405180830381600087803b158015610b5957600080fd5b505af1158015610b6d573d6000803e3d6000fd5b505050505050505050565b6040516001600160a01b0380851660248301528316604482015260648101829052610bb09085906323b872dd60e01b9060840161085f565b50505050565b6000610c0b826040518060400160405280602081526020017f5361666545524332303a206c6f772d6c6576656c2063616c6c206661696c6564815250856001600160a01b031661106c9092919063ffffffff16565b8051909150156108965780806020019051810190610c29919061125c565b6108965760405162461bcd60e51b815260206004820152602a60248201527f5361666545524332303a204552433230206f7065726174696f6e20646964206e6044820152691bdd081cdd58d8d9595960b21b606482015260840161048c565b7f0000000000000000000000000000000000000000000000000000000000000000821115610cf15760405162461bcd60e51b81526020600482015260166024820152755645443a204455524154494f4e5f544f4f5f4c4f4e4760501b604482015260640161048c565b60007f000000000000000000000000000000000000000000000000000000000000000080610d1f85426112e1565b610d299190611318565b610d3391906112f9565b9050600080610d4686610a6242866112ca565b915091508315610d6a57605a610d5d8360646112f9565b610d679190611318565b91505b82337f133e6f671a17d15981c6269ce9d49d721e64d359ebfd0787e56bbe73c15ba01484610d9885826112ca565b6040805192835260208301919091520160405180910390a36001600160a01b037f00000000000000000000000000000000000000000000000000000000000000001663a6db822b3384610deb85826112ca565b6040516001600160e01b031960e086901b1681526001600160a01b0390931660048401526024830191909152604482015260648101869052608401600060405180830381600087803b158015610e4057600080fd5b505af1158015610e54573d6000803e3d6000fd5b50505050505050505050565b6000806000807f00000000000000000000000000000000000000000000000000000000000000006001600160a01b0316630902f1ac6040518163ffffffff1660e01b8152600401606060405180830381865afa158015610ec4573d6000803e3d6000fd5b505050506040513d601f19601f82011682018060405250810190610ee89190611356565b509150915060007f0000000000000000000000000000000000000000000000000000000000000000610f2357826001600160701b0316610f2e565b816001600160701b03165b905060007f00000000000000000000000000000000000000000000000000000000000000006001600160a01b03166318160ddd6040518163ffffffff1660e01b8152600401602060405180830381865afa158015610f90573d6000803e3d6000fd5b505050506040513d601f19601f82011682018060405250810190610fb4919061129b565b9050600081610fc3848b6112f9565b610fcd9190611318565b9050818260005484610fdf91906112ca565b6110097f0000000000000000000000000000000000000000000000000000000000000000856112f9565b61101391906112f9565b61101d9190611318565b6110279190611318565b61103190826112e1565b96506000600a6110438361014d6112f9565b61104d9190611318565b90508088111561105b578097505b600096505050505050509250929050565b606061107b8484600085611085565b90505b9392505050565b6060824710156110e65760405162461bcd60e51b815260206004820152602660248201527f416464726573733a20696e73756666696369656e742062616c616e636520666f6044820152651c8818d85b1b60d21b606482015260840161048c565b6001600160a01b0385163b61113d5760405162461bcd60e51b815260206004820152601d60248201527f416464726573733a2063616c6c20746f206e6f6e2d636f6e7472616374000000604482015260640161048c565b600080866001600160a01b0316858760405161115991906113d2565b60006040518083038185875af1925050503d8060008114611196576040519150601f19603f3d011682016040523d82523d6000602084013e61119b565b606091505b50915091506111ab8282866111b6565b979650505050505050565b606083156111c557508161107e565b8251156111d55782518084602001fd5b8160405162461bcd60e51b815260040161048c91906113ee565b60006020828403121561120157600080fd5b5035919050565b6000806040838503121561121b57600080fd5b50508035926020909101359150565b6001600160a01b038116811461023157600080fd5b60006020828403121561125157600080fd5b813561107e8161122a565b60006020828403121561126e57600080fd5b8151801515811461107e57600080fd5b60006020828403121561129057600080fd5b815161107e8161122a565b6000602082840312156112ad57600080fd5b5051919050565b634e487b7160e01b600052601160045260246000fd5b6000828210156112dc576112dc6112b4565b500390565b600082198211156112f4576112f46112b4565b500190565b6000816000190483118215151615611313576113136112b4565b500290565b60008261133557634e487b7160e01b600052601260045260246000fd5b500490565b80516001600160701b038116811461135157600080fd5b919050565b60008060006060848603121561136b57600080fd5b6113748461133a565b92506113826020850161133a565b9150604084015163ffffffff8116811461139b57600080fd5b809150509250925092565b60005b838110156113c15781810151838201526020016113a9565b83811115610bb05750506000910152565b600082516113e48184602087016113a6565b9190910192915050565b602081526000825180602084015261140d8160408501602087016113a6565b601f01601f1916919091016040019291505056fea2646970667358221220bc1527239de99e223ac36a920531d2f9aeb70bc24cae13cafbb33753a71058d864736f6c634300080e0033",
  "devdoc": {
    "kind": "dev",
    "methods": {},
    "version": 1
  },
  "userdoc": {
    "kind": "user",
    "methods": {},
    "version": 1
  },
  "storageLayout": {
    "storage": [
      {
        "astId": 2791,
        "contract": "contracts/LPVotingEscrowDelegate.sol:LPVotingEscrowDelegate",
        "label": "lockedTotal",
        "offset": 0,
        "slot": "0",
        "type": "t_uint256"
      },
      {
        "astId": 2795,
        "contract": "contracts/LPVotingEscrowDelegate.sol:LPVotingEscrowDelegate",
        "label": "locked",
        "offset": 0,
        "slot": "1",
        "type": "t_mapping(t_address,t_uint256)"
      }
    ],
    "types": {
      "t_address": {
        "encoding": "inplace",
        "label": "address",
        "numberOfBytes": "20"
      },
      "t_mapping(t_address,t_uint256)": {
        "encoding": "mapping",
        "key": "t_address",
        "label": "mapping(address => uint256)",
        "numberOfBytes": "32",
        "value": "t_uint256"
      },
      "t_uint256": {
        "encoding": "inplace",
        "label": "uint256",
        "numberOfBytes": "32"
      }
    }
  }
}