{
  "address": "0xc25e079a84A7Af3015FA21db546b9c6c401a5a36",
  "abi": [
    {
      "inputs": [
        {
          "internalType": "address",
          "name": "_token",
          "type": "address"
        },
        {
          "internalType": "string",
          "name": "_name",
          "type": "string"
        },
        {
          "internalType": "string",
          "name": "_symbol",
          "type": "string"
        },
        {
          "internalType": "uint256",
          "name": "_interval",
          "type": "uint256"
        },
        {
          "internalType": "uint256",
          "name": "_maxDuration",
          "type": "uint256"
        }
      ],
      "stateMutability": "nonpayable",
      "type": "constructor"
    },
    {
      "anonymous": false,
      "inputs": [
        {
          "indexed": true,
          "internalType": "address",
          "name": "provider",
          "type": "address"
        },
        {
          "indexed": false,
          "internalType": "uint256",
          "name": "value",
          "type": "uint256"
        },
        {
          "indexed": false,
          "internalType": "uint256",
          "name": "penalty",
          "type": "uint256"
        },
        {
          "indexed": false,
          "internalType": "uint256",
          "name": "ts",
          "type": "uint256"
        }
      ],
      "name": "Cancel",
      "type": "event"
    },
    {
      "anonymous": false,
      "inputs": [
        {
          "indexed": true,
          "internalType": "address",
          "name": "provider",
          "type": "address"
        },
        {
          "indexed": false,
          "internalType": "uint256",
          "name": "value",
          "type": "uint256"
        },
        {
          "indexed": false,
          "internalType": "uint256",
          "name": "discount",
          "type": "uint256"
        },
        {
          "indexed": true,
          "internalType": "uint256",
          "name": "locktime",
          "type": "uint256"
        },
        {
          "indexed": false,
          "internalType": "int128",
          "name": "_type",
          "type": "int128"
        },
        {
          "indexed": false,
          "internalType": "uint256",
          "name": "ts",
          "type": "uint256"
        }
      ],
      "name": "Deposit",
      "type": "event"
    },
    {
      "anonymous": false,
      "inputs": [
        {
          "indexed": true,
          "internalType": "address",
          "name": "provider",
          "type": "address"
        },
        {
          "indexed": false,
          "internalType": "uint256",
          "name": "value",
          "type": "uint256"
        },
        {
          "indexed": false,
          "internalType": "uint256",
          "name": "discount",
          "type": "uint256"
        },
        {
          "indexed": false,
          "internalType": "uint256",
          "name": "ts",
          "type": "uint256"
        }
      ],
      "name": "Migrate",
      "type": "event"
    },
    {
      "anonymous": false,
      "inputs": [
        {
          "indexed": true,
          "internalType": "address",
          "name": "previousOwner",
          "type": "address"
        },
        {
          "indexed": true,
          "internalType": "address",
          "name": "newOwner",
          "type": "address"
        }
      ],
      "name": "OwnershipTransferred",
      "type": "event"
    },
    {
      "anonymous": false,
      "inputs": [
        {
          "indexed": true,
          "internalType": "address",
          "name": "account",
          "type": "address"
        },
        {
          "indexed": false,
          "internalType": "bool",
          "name": "isDelegate",
          "type": "bool"
        }
      ],
      "name": "SetDelegate",
      "type": "event"
    },
    {
      "anonymous": false,
      "inputs": [
        {
          "indexed": true,
          "internalType": "address",
          "name": "account",
          "type": "address"
        }
      ],
      "name": "SetMigrator",
      "type": "event"
    },
    {
      "anonymous": false,
      "inputs": [
        {
          "indexed": false,
          "internalType": "uint256",
          "name": "prevSupply",
          "type": "uint256"
        },
        {
          "indexed": false,
          "internalType": "uint256",
          "name": "supply",
          "type": "uint256"
        }
      ],
      "name": "Supply",
      "type": "event"
    },
    {
      "anonymous": false,
      "inputs": [
        {
          "indexed": true,
          "internalType": "address",
          "name": "provider",
          "type": "address"
        },
        {
          "indexed": false,
          "internalType": "uint256",
          "name": "value",
          "type": "uint256"
        },
        {
          "indexed": false,
          "internalType": "uint256",
          "name": "discount",
          "type": "uint256"
        },
        {
          "indexed": false,
          "internalType": "uint256",
          "name": "ts",
          "type": "uint256"
        }
      ],
      "name": "Withdraw",
      "type": "event"
    },
    {
      "inputs": [
        {
          "internalType": "address",
          "name": "addr",
          "type": "address"
        },
        {
          "internalType": "uint256",
          "name": "_t",
          "type": "uint256"
        }
      ],
      "name": "balanceOf",
      "outputs": [
        {
          "internalType": "uint256",
          "name": "",
          "type": "uint256"
        }
      ],
      "stateMutability": "view",
      "type": "function"
    },
    {
      "inputs": [
        {
          "internalType": "address",
          "name": "addr",
          "type": "address"
        }
      ],
      "name": "balanceOf",
      "outputs": [
        {
          "internalType": "uint256",
          "name": "",
          "type": "uint256"
        }
      ],
      "stateMutability": "view",
      "type": "function"
    },
    {
      "inputs": [
        {
          "internalType": "address",
          "name": "addr",
          "type": "address"
        },
        {
          "internalType": "uint256",
          "name": "_block",
          "type": "uint256"
        }
      ],
      "name": "balanceOfAt",
      "outputs": [
        {
          "internalType": "uint256",
          "name": "",
          "type": "uint256"
        }
      ],
      "stateMutability": "view",
      "type": "function"
    },
    {
      "inputs": [],
      "name": "cancel",
      "outputs": [],
      "stateMutability": "nonpayable",
      "type": "function"
    },
    {
      "inputs": [],
      "name": "checkpoint",
      "outputs": [],
      "stateMutability": "nonpayable",
      "type": "function"
    },
    {
      "inputs": [
        {
          "internalType": "uint256",
          "name": "_value",
          "type": "uint256"
        },
        {
          "internalType": "uint256",
          "name": "_unlock_time",
          "type": "uint256"
        }
      ],
      "name": "createLock",
      "outputs": [],
      "stateMutability": "nonpayable",
      "type": "function"
    },
    {
      "inputs": [
        {
          "internalType": "address",
          "name": "_addr",
          "type": "address"
        },
        {
          "internalType": "uint256",
          "name": "_value",
          "type": "uint256"
        },
        {
          "internalType": "uint256",
          "name": "_discount",
          "type": "uint256"
        },
        {
          "internalType": "uint256",
          "name": "_unlock_time",
          "type": "uint256"
        }
      ],
      "name": "createLockFor",
      "outputs": [],
      "stateMutability": "nonpayable",
      "type": "function"
    },
    {
      "inputs": [],
      "name": "decimals",
      "outputs": [
        {
          "internalType": "uint8",
          "name": "",
          "type": "uint8"
        }
      ],
      "stateMutability": "view",
      "type": "function"
    },
    {
      "inputs": [
        {
          "internalType": "address",
          "name": "_addr",
          "type": "address"
        },
        {
          "internalType": "uint256",
          "name": "_value",
          "type": "uint256"
        }
      ],
      "name": "depositFor",
      "outputs": [],
      "stateMutability": "nonpayable",
      "type": "function"
    },
    {
      "inputs": [],
      "name": "epoch",
      "outputs": [
        {
          "internalType": "uint256",
          "name": "",
          "type": "uint256"
        }
      ],
      "stateMutability": "view",
      "type": "function"
    },
    {
      "inputs": [
        {
          "internalType": "address",
          "name": "_addr",
          "type": "address"
        },
        {
          "internalType": "uint256",
          "name": "_idx",
          "type": "uint256"
        }
      ],
      "name": "getCheckpointTime",
      "outputs": [
        {
          "internalType": "uint256",
          "name": "",
          "type": "uint256"
        }
      ],
      "stateMutability": "view",
      "type": "function"
    },
    {
      "inputs": [
        {
          "internalType": "address",
          "name": "addr",
          "type": "address"
        }
      ],
      "name": "getLastUserSlope",
      "outputs": [
        {
          "internalType": "int128",
          "name": "",
          "type": "int128"
        }
      ],
      "stateMutability": "view",
      "type": "function"
    },
    {
      "inputs": [
        {
          "internalType": "uint256",
          "name": "_value",
          "type": "uint256"
        }
      ],
      "name": "increaseAmount",
      "outputs": [],
      "stateMutability": "nonpayable",
      "type": "function"
    },
    {
      "inputs": [
        {
          "internalType": "address",
          "name": "_addr",
          "type": "address"
        },
        {
          "internalType": "uint256",
          "name": "_value",
          "type": "uint256"
        },
        {
          "internalType": "uint256",
          "name": "_discount",
          "type": "uint256"
        }
      ],
      "name": "increaseAmountFor",
      "outputs": [],
      "stateMutability": "nonpayable",
      "type": "function"
    },
    {
      "inputs": [
        {
          "internalType": "uint256",
          "name": "_unlock_time",
          "type": "uint256"
        }
      ],
      "name": "increaseUnlockTime",
      "outputs": [],
      "stateMutability": "nonpayable",
      "type": "function"
    },
    {
      "inputs": [],
      "name": "interval",
      "outputs": [
        {
          "internalType": "uint256",
          "name": "",
          "type": "uint256"
        }
      ],
      "stateMutability": "view",
      "type": "function"
    },
    {
      "inputs": [
        {
          "internalType": "address",
          "name": "",
          "type": "address"
        }
      ],
      "name": "isDelegate",
      "outputs": [
        {
          "internalType": "bool",
          "name": "",
          "type": "bool"
        }
      ],
      "stateMutability": "view",
      "type": "function"
    },
    {
      "inputs": [
        {
          "internalType": "address",
          "name": "",
          "type": "address"
        }
      ],
      "name": "locked",
      "outputs": [
        {
          "internalType": "int128",
          "name": "amount",
          "type": "int128"
        },
        {
          "internalType": "int128",
          "name": "discount",
          "type": "int128"
        },
        {
          "internalType": "uint256",
          "name": "duration",
          "type": "uint256"
        },
        {
          "internalType": "uint256",
          "name": "end",
          "type": "uint256"
        }
      ],
      "stateMutability": "view",
      "type": "function"
    },
    {
      "inputs": [],
      "name": "maxDuration",
      "outputs": [
        {
          "internalType": "uint256",
          "name": "",
          "type": "uint256"
        }
      ],
      "stateMutability": "view",
      "type": "function"
    },
    {
      "inputs": [],
      "name": "migrate",
      "outputs": [],
      "stateMutability": "nonpayable",
      "type": "function"
    },
    {
      "inputs": [
        {
          "internalType": "address",
          "name": "",
          "type": "address"
        }
      ],
      "name": "migrated",
      "outputs": [
        {
          "internalType": "bool",
          "name": "",
          "type": "bool"
        }
      ],
      "stateMutability": "view",
      "type": "function"
    },
    {
      "inputs": [],
      "name": "migrator",
      "outputs": [
        {
          "internalType": "address",
          "name": "",
          "type": "address"
        }
      ],
      "stateMutability": "view",
      "type": "function"
    },
    {
      "inputs": [],
      "name": "name",
      "outputs": [
        {
          "internalType": "string",
          "name": "",
          "type": "string"
        }
      ],
      "stateMutability": "view",
      "type": "function"
    },
    {
      "inputs": [],
      "name": "owner",
      "outputs": [
        {
          "internalType": "address",
          "name": "",
          "type": "address"
        }
      ],
      "stateMutability": "view",
      "type": "function"
    },
    {
      "inputs": [
        {
          "internalType": "uint256",
          "name": "",
          "type": "uint256"
        }
      ],
      "name": "pointHistory",
      "outputs": [
        {
          "internalType": "int128",
          "name": "bias",
          "type": "int128"
        },
        {
          "internalType": "int128",
          "name": "slope",
          "type": "int128"
        },
        {
          "internalType": "uint256",
          "name": "ts",
          "type": "uint256"
        },
        {
          "internalType": "uint256",
          "name": "blk",
          "type": "uint256"
        }
      ],
      "stateMutability": "view",
      "type": "function"
    },
    {
      "inputs": [],
      "name": "renounceOwnership",
      "outputs": [],
      "stateMutability": "nonpayable",
      "type": "function"
    },
    {
      "inputs": [
        {
          "internalType": "address",
          "name": "account",
          "type": "address"
        },
        {
          "internalType": "bool",
          "name": "_isDelegate",
          "type": "bool"
        }
      ],
      "name": "setDelegate",
      "outputs": [],
      "stateMutability": "nonpayable",
      "type": "function"
    },
    {
      "inputs": [
        {
          "internalType": "address",
          "name": "_migrator",
          "type": "address"
        }
      ],
      "name": "setMigrator",
      "outputs": [],
      "stateMutability": "nonpayable",
      "type": "function"
    },
    {
      "inputs": [
        {
          "internalType": "uint256",
          "name": "",
          "type": "uint256"
        }
      ],
      "name": "slopeChanges",
      "outputs": [
        {
          "internalType": "int128",
          "name": "",
          "type": "int128"
        }
      ],
      "stateMutability": "view",
      "type": "function"
    },
    {
      "inputs": [],
      "name": "supply",
      "outputs": [
        {
          "internalType": "uint256",
          "name": "",
          "type": "uint256"
        }
      ],
      "stateMutability": "view",
      "type": "function"
    },
    {
      "inputs": [],
      "name": "symbol",
      "outputs": [
        {
          "internalType": "string",
          "name": "",
          "type": "string"
        }
      ],
      "stateMutability": "view",
      "type": "function"
    },
    {
      "inputs": [],
      "name": "token",
      "outputs": [
        {
          "internalType": "address",
          "name": "",
          "type": "address"
        }
      ],
      "stateMutability": "view",
      "type": "function"
    },
    {
      "inputs": [],
      "name": "totalSupply",
      "outputs": [
        {
          "internalType": "uint256",
          "name": "",
          "type": "uint256"
        }
      ],
      "stateMutability": "view",
      "type": "function"
    },
    {
      "inputs": [
        {
          "internalType": "uint256",
          "name": "t",
          "type": "uint256"
        }
      ],
      "name": "totalSupply",
      "outputs": [
        {
          "internalType": "uint256",
          "name": "",
          "type": "uint256"
        }
      ],
      "stateMutability": "view",
      "type": "function"
    },
    {
      "inputs": [
        {
          "internalType": "uint256",
          "name": "_block",
          "type": "uint256"
        }
      ],
      "name": "totalSupplyAt",
      "outputs": [
        {
          "internalType": "uint256",
          "name": "",
          "type": "uint256"
        }
      ],
      "stateMutability": "view",
      "type": "function"
    },
    {
      "inputs": [
        {
          "internalType": "address",
          "name": "newOwner",
          "type": "address"
        }
      ],
      "name": "transferOwnership",
      "outputs": [],
      "stateMutability": "nonpayable",
      "type": "function"
    },
    {
      "inputs": [
        {
          "internalType": "address",
          "name": "_addr",
          "type": "address"
        }
      ],
      "name": "unlockTime",
      "outputs": [
        {
          "internalType": "uint256",
          "name": "",
          "type": "uint256"
        }
      ],
      "stateMutability": "view",
      "type": "function"
    },
    {
      "inputs": [
        {
          "internalType": "address",
          "name": "",
          "type": "address"
        }
      ],
      "name": "userPointEpoch",
      "outputs": [
        {
          "internalType": "uint256",
          "name": "",
          "type": "uint256"
        }
      ],
      "stateMutability": "view",
      "type": "function"
    },
    {
      "inputs": [
        {
          "internalType": "address",
          "name": "",
          "type": "address"
        },
        {
          "internalType": "uint256",
          "name": "",
          "type": "uint256"
        }
      ],
      "name": "userPointHistory",
      "outputs": [
        {
          "internalType": "int128",
          "name": "bias",
          "type": "int128"
        },
        {
          "internalType": "int128",
          "name": "slope",
          "type": "int128"
        },
        {
          "internalType": "uint256",
          "name": "ts",
          "type": "uint256"
        },
        {
          "internalType": "uint256",
          "name": "blk",
          "type": "uint256"
        }
      ],
      "stateMutability": "view",
      "type": "function"
    },
    {
      "inputs": [],
      "name": "withdraw",
      "outputs": [],
      "stateMutability": "nonpayable",
      "type": "function"
    }
  ],
  "transactionHash": "0x64b993bdf4404867e98feefe10b5a6f7c6ece42902d572ecb8e23a95ced2b9fb",
  "args": [
    "0xf474E526ADe9aD2CC2B66ffCE528B1A51B91FCdC",
    "Voting-escrowed LEVX",
    "THANO$",
    259200,
    62985600
  ],
  "solcInputHash": "9c4443ed2f7a6eed2b1e1e6862325806",
  "bytecode": "0x6101006040523480156200001257600080fd5b5060405162003b9938038062003b99833981016040819052620000359162000326565b620000403362000163565b600180556001600160a01b03851660c052835162000066906002906020870190620001b3565b5082516200007c906003906020860190620001b3565b50846001600160a01b031663313ce5676040518163ffffffff1660e01b8152600401602060405180830381865afa158015620000bc573d6000803e3d6000fd5b505050506040513d601f19601f82011682018060405250810190620000e29190620003c3565b60ff1660e052608082905281620000fa8183620003ef565b62000106919062000412565b60a0525050600080525050600a60205250437f13da86008ba1c6922daee3e07db95305ef49ebced9f5467a0b8613fcc6b343e555427f13da86008ba1c6922daee3e07db95305ef49ebced9f5467a0b8613fcc6b343e4556200047c565b600080546001600160a01b038381166001600160a01b0319831681178455604051919092169283917f8be0079c531659141344cd1fd0a4f28419497f9722a3daafe3b4186f6b6457e09190a35050565b828054620001c19062000440565b90600052602060002090601f016020900481019282620001e5576000855562000230565b82601f106200020057805160ff191683800117855562000230565b8280016001018555821562000230579182015b828111156200023057825182559160200191906001019062000213565b506200023e92915062000242565b5090565b5b808211156200023e576000815560010162000243565b634e487b7160e01b600052604160045260246000fd5b600082601f8301126200028157600080fd5b81516001600160401b03808211156200029e576200029e62000259565b604051601f8301601f19908116603f01168101908282118183101715620002c957620002c962000259565b81604052838152602092508683858801011115620002e657600080fd5b600091505b838210156200030a5785820183015181830184015290820190620002eb565b838211156200031c5760008385830101525b9695505050505050565b600080600080600060a086880312156200033f57600080fd5b85516001600160a01b03811681146200035757600080fd5b60208701519095506001600160401b03808211156200037557600080fd5b6200038389838a016200026f565b955060408801519150808211156200039a57600080fd5b50620003a9888289016200026f565b606088015160809098015196999598509695949350505050565b600060208284031215620003d657600080fd5b815160ff81168114620003e857600080fd5b9392505050565b6000826200040d57634e487b7160e01b600052601260045260246000fd5b500490565b60008160001904831182151516156200043b57634e487b7160e01b600052601160045260246000fd5b500290565b600181811c908216806200045557607f821691505b6020821081036200047657634e487b7160e01b600052602260045260246000fd5b50919050565b60805160a05160c05160e05161367a6200051f600039600061030b0152600081816106d601528181610d5701526123100152600081816104060152818161137c01528181611bed01528181611dec0152818161246c01526124e90152600081816105320152818161128a01528181611a8d01528181611cdd015281816126a4015281816126ea01528181612c8c01528181612cad0152612cf8015261367a6000f3fe608060405234801561001057600080fd5b50600436106102475760003560e01c806381fc83bb1161013b578063b52c05fe116100b8578063ea8a1af01161007c578063ea8a1af01461063a578063f2fde38b14610642578063f3a6d60814610655578063f52a36f7146106ae578063fc0c546a146106d157600080fd5b8063b52c05fe14610595578063bd85b039146105a8578063c2c4c5c1146105bb578063cbf9fe5f146105c3578063e620f4fd1461060157600080fd5b8063947a36fb116100ff578063947a36fb1461052d57806395d89b4114610554578063981b24d01461055c57806399742dc61461056f578063a6db822b1461058257600080fd5b806381fc83bb146104ad5780638ad4c447146104cd5780638da5cb5b1461050b5780638fd3ab801461051c578063900cf0cf1461052457600080fd5b80633ccfd60b116101c957806370a082311161018d57806370a0823114610428578063715018a61461043b57806376b467b7146104435780637c616fe61461046f5780637cd07e471461048257600080fd5b80633ccfd60b146103b05780634a994eef146103b85780634ba0a5ee146103cb5780634ee2cd7e146103ee5780636db5c8fd1461040157600080fd5b806318160ddd1161021057806318160ddd146102d857806323cf3118146102e05780632f4f21e2146102f3578063313ce5671461030657806334d901a41461033f57600080fd5b8062fdd58e1461024c578063047fc9aa1461027257806306fdde031461027b578063077796271461029057806315456eba146102c3575b600080fd5b61025f61025a36600461306b565b6106f8565b6040519081526020015b60405180910390f35b61025f60075481565b6102836107de565b60405161026991906130c1565b6102b361029e3660046130f4565b60066020526000908152604090205460ff1681565b6040519015158152602001610269565b6102d66102d136600461310f565b61086c565b005b61025f6109cd565b6102d66102ee3660046130f4565b6109dd565b6102d661030136600461306b565b610a9d565b61032d7f000000000000000000000000000000000000000000000000000000000000000081565b60405160ff9091168152602001610269565b61038861034d36600461306b565b600b602090815260009283526040808420909152908252902080546001820154600290920154600f82810b93600160801b909304900b919084565b60408051600f95860b81529390940b6020840152928201526060810191909152608001610269565b6102d6610bc9565b6102d66103c6366004613136565b610e12565b6102b36103d93660046130f4565b60056020526000908152604090205460ff1681565b61025f6103fc36600461306b565b610e9b565b61025f7f000000000000000000000000000000000000000000000000000000000000000081565b61025f6104363660046130f4565b61116f565b6102d661117b565b61025f6104513660046130f4565b6001600160a01b031660009081526008602052604090206002015490565b6102d661047d36600461310f565b6111b1565b600454610495906001600160a01b031681565b6040516001600160a01b039091168152602001610269565b61025f6104bb3660046130f4565b600c6020526000908152604090205481565b6103886104db36600461310f565b600a60205260009081526040902080546001820154600290920154600f82810b93600160801b909304900b919084565b6000546001600160a01b0316610495565b6102d66113d0565b61025f60095481565b61025f7f000000000000000000000000000000000000000000000000000000000000000081565b61028361166d565b61025f61056a36600461310f565b61167a565b6102d661057d36600461316d565b611819565b6102d66105903660046131a0565b6119e0565b6102d66105a33660046131d9565b611c4c565b61025f6105b636600461310f565b611e40565b6102d6611ea0565b6103886105d13660046130f4565b600860205260009081526040902080546001820154600290920154600f82810b93600160801b909304900b919084565b61025f61060f36600461306b565b6001600160a01b03919091166000908152600b60209081526040808320938352929052206001015490565b6102d6611f00565b6102d66106503660046130f4565b61214f565b61069b6106633660046130f4565b6001600160a01b03166000908152600c6020908152604080832054600b8352818420908452909152902054600160801b9004600f0b90565b604051600f9190910b8152602001610269565b61069b6106bc36600461310f565b600d60205260009081526040902054600f0b81565b6104957f000000000000000000000000000000000000000000000000000000000000000081565b6001600160a01b0382166000908152600c60205260408120548082036107225760009150506107d8565b6001600160a01b0384166000908152600b6020908152604080832084845282529182902082516080810184528154600f81810b8352600160801b909104900b9281019290925260018101549282018390526002015460608201529061078e9061078b9086613211565b90565b816020015161079d9190613228565b815182906107ac9083906132bd565b600f90810b90915282516000910b121590506107c757600081525b80516001600160801b03165b925050505b92915050565b600280546107eb9061330d565b80601f01602080910402602001604051908101604052809291908181526020018280546108179061330d565b80156108645780601f1061083957610100808354040283529160200191610864565b820191906000526020600020905b81548152906001019060200180831161084757829003601f168201915b505050505081565b6002600154036108975760405162461bcd60e51b815260040161088e90613347565b60405180910390fd5b60026001553332146108d2573360009081526006602052604090205460ff166108d25760405162461bcd60e51b815260040161088e9061337e565b3360009081526005602052604090205460ff16156109025760405162461bcd60e51b815260040161088e906133b5565b3360009081526008602090815260409182902082516080810184528154600f81810b8352600160801b909104900b9281019290925260018101549282019290925260029091015460608201528161096b5760405162461bcd60e51b815260040161088e906133e0565b60008160000151600f0b136109925760405162461bcd60e51b815260040161088e9061340b565b428160600151116109b55760405162461bcd60e51b815260040161088e90613437565b6109c533836000808560026121ea565b505060018055565b60006109d842611e40565b905090565b6000546001600160a01b03163314610a075760405162461bcd60e51b815260040161088e90613461565b6004546001600160a01b031615610a535760405162461bcd60e51b815260206004820152601060248201526f15914e88135251d4905513d497d4d15560821b604482015260640161088e565b600480546001600160a01b0319166001600160a01b0383169081179091556040517ff40543f3e605deae7fbca26db18ff1de07eda2925d68655836eae4c167444e3290600090a250565b600260015403610abf5760405162461bcd60e51b815260040161088e90613347565b60026001553360009081526005602052604090205460ff1615610af45760405162461bcd60e51b815260040161088e906133b5565b6001600160a01b03821660009081526008602090815260409182902082516080810184528154600f81810b8352600160801b909104900b92810192909252600181015492820192909252600290910154606082015281610b665760405162461bcd60e51b815260040161088e906133e0565b60008160000151600f0b13610b8d5760405162461bcd60e51b815260040161088e9061340b565b42816060015111610bb05760405162461bcd60e51b815260040161088e90613437565b610bc083836000808560006121ea565b50506001805550565b600260015403610beb5760405162461bcd60e51b815260040161088e90613347565b600260018181553360009081526008602090815260409182902082516080810184528154600f81810b8352600160801b909104900b92810192909252928301549181019190915291015460608201819052421015610c825760405162461bcd60e51b815260206004820152601460248201527315914e881313d0d2d7d393d517d156141254915160621b604482015260640161088e565b805160208083015160408051608081018252600080825281850181815282840182815260608401838152338452600890975293909120915190516001600160801b03918216600160801b9183169190910217825591516001820155925160029093019290925560075492821692911690610cfc8382613211565b600781905550610d37338560405180608001604052806000600f0b81526020016000600f0b81526020016000815260200160008152506123ec565b81831115610d7e57610d7e33610d4d8486613211565b6001600160a01b037f0000000000000000000000000000000000000000000000000000000000000000169190612b42565b6040805184815260208101849052429181019190915233907f02f25270a4d87bea75db541cdfe559334a275b4a233520ed6c0a2429667cca94906060015b60405180910390a27f5e2aa66efd74cce82b21852e317e5490d9ecc9e6bb953ae24d90851258cc2f5c81610df08582613211565b6040805192835260208301919091520160405180910390a15050600180555050565b6000546001600160a01b03163314610e3c5760405162461bcd60e51b815260040161088e90613461565b6001600160a01b038216600081815260066020908152604091829020805460ff191685151590811790915591519182527f615a0bea5d49872b4b6680f2760a723460414907bfdf270030fd08ebca2bd23e910160405180910390a25050565b600043821115610eaa57600080fd5b6001600160a01b0383166000908152600c6020526040812054815b6080811015610f525781831015610f525760006002610ee48486613496565b610eef906001613496565b610ef991906134c4565b6001600160a01b0388166000908152600b602090815260408083208484529091529020600201549091508610610f3157809350610f3f565b610f3c600182613211565b92505b5080610f4a816134d8565b915050610ec5565b506001600160a01b0385166000908152600b60209081526040808320858452825280832081516080810183528154600f81810b8352600160801b909104900b938101939093526001810154918301919091526002015460608201526009549091610fbc8783612baa565b6000818152600a6020908152604080832081516080810183528154600f81810b8352600160801b909104900b93810193909352600181015491830191909152600201546060820152919250808484101561109b576000600a81611020876001613496565b8152602080820192909252604090810160002081516080810183528154600f81810b8352600160801b909104900b9381019390935260018101549183019190915260020154606080830182905286015191925061107d9190613211565b9250836040015181604001516110939190613211565b9150506110bf565b60608301516110aa9043613211565b91508260400151426110bc9190613211565b90505b604083015182156110fc578284606001518c6110db9190613211565b6110e590846134f1565b6110ef91906134c4565b6110f99082613496565b90505b61110f87604001518261078b9190613211565b876020015161111e9190613228565b8751889061112d9083906132bd565b600f90810b90915288516000910b12905061115d5786516001600160801b031699505050505050505050506107d8565b600099505050505050505050506107d8565b60006107d882426106f8565b6000546001600160a01b031633146111a55760405162461bcd60e51b815260040161088e90613461565b6111af6000612c32565b565b6002600154036111d35760405162461bcd60e51b815260040161088e90613347565b600260015533321461120e573360009081526006602052604090205460ff1661120e5760405162461bcd60e51b815260040161088e9061337e565b3360009081526005602052604090205460ff161561123e5760405162461bcd60e51b815260040161088e906133b5565b33600090815260086020908152604080832081516080810183528154600f81810b8352600160801b909104900b93810193909352600181015491830191909152600201546060820152907f00000000000000000000000000000000000000000000000000000000000000006112b381856134c4565b6112bd91906134f1565b9050428260600151116112e25760405162461bcd60e51b815260040161088e90613437565b60008260000151600f0b136113095760405162461bcd60e51b815260040161088e9061340b565b6020820151600f0b156113545760405162461bcd60e51b815260206004820152601360248201527215914e881313d0d2d7d11254d0d3d553951151606a1b604482015260640161088e565b816060015181116113775760405162461bcd60e51b815260040161088e90613510565b6113a17f000000000000000000000000000000000000000000000000000000000000000042613496565b8111156113c05760405162461bcd60e51b815260040161088e90613547565b610bc033600080848660036121ea565b6002600154036113f25760405162461bcd60e51b815260040161088e90613347565b60026001553360009081526005602052604090205460ff16156114275760405162461bcd60e51b815260040161088e906133b5565b6004546001600160a01b03166114765760405162461bcd60e51b815260206004820152601460248201527315914e88135251d4905513d497d393d517d4d15560621b604482015260640161088e565b3360008181526008602081815260408084208151608080820184528254600f81810b8452600160801b8083049182900b858901526001860180548689015260028701805460608089019190915289519687018a528c8752868b018d81529987018d81529087018d81529d909c5299909852925195516001600160801b0390811690930295831695909517909355955190935594519092556007549093831692909116906115238382613211565b60078190555061155e338560405180608001604052806000600f0b81526020016000600f0b81526020016000815260200160008152506123ec565b33600081815260056020908152604091829020805460ff19166001179055600480548851928901518985015160608b015195516358c3e01b60e11b815293840196909652600f93840b602484015290920b6044820152606481019390935260848301919091526001600160a01b03169063b187c0369060a401600060405180830381600087803b1580156115f157600080fd5b505af1158015611605573d6000803e3d6000fd5b505050508183111561162b5760045461162b906001600160a01b0316610d4d8486613211565b6040805184815260208101849052429181019190915233907fc47a839c70aa320457c80c5abd38ce8b516c72e37be119b7962f67f1f8eb7ac290606001610dbc565b600380546107eb9061330d565b60004382111561168957600080fd5b60095460006116988483612baa565b6000818152600a6020908152604080832081516080810183528154600f81810b8352600160801b909104900b93810193909352600181015491830191909152600201546060820152919250838310156117a7576000600a816116fb866001613496565b8152602080820192909252604090810160002081516080810183528154600f81810b8352600160801b909104900b93810193909352600181015491830191909152600201546060808301829052850151919250146117a157826060015181606001516117679190613211565b8360400151826040015161177b9190613211565b606085015161178a908a613211565b61179491906134f1565b61179e91906134c4565b91505b506117f6565b438260600151146117f65760608201516117c19043613211565b60408301516117d09042613211565b60608401516117df9089613211565b6117e991906134f1565b6117f391906134c4565b90505b61180f8282846040015161180a9190613496565b612c82565b9695505050505050565b60026001540361183b5760405162461bcd60e51b815260040161088e90613347565b60026001553360009081526006602052604090205460ff166118925760405162461bcd60e51b815260206004820152601060248201526f56453a204e4f545f44454c454741544560801b604482015260640161088e565b3360009081526005602052604090205460ff16156118c25760405162461bcd60e51b815260040161088e906133b5565b6001600160a01b03831660009081526008602090815260409182902082516080810184528154600f81810b8352600160801b909104900b928101929092526001810154928201929092526002909101546060820152826119345760405162461bcd60e51b815260040161088e906133e0565b8183101561197c5760405162461bcd60e51b81526020600482015260156024820152740ac8a74408892a6869eaa9ca8bea89e9ebe90928e9605b1b604482015260640161088e565b60008160000151600f0b136119a35760405162461bcd60e51b815260040161088e9061340b565b428160600151116119c65760405162461bcd60e51b815260040161088e90613437565b6119d684848460008560026121ea565b5050600180555050565b600260015403611a025760405162461bcd60e51b815260040161088e90613347565b60026001553360009081526006602052604090205460ff16611a595760405162461bcd60e51b815260206004820152601060248201526f56453a204e4f545f44454c454741544560801b604482015260640161088e565b3360009081526005602052604090205460ff1615611a895760405162461bcd60e51b815260040161088e906133b5565b60007f0000000000000000000000000000000000000000000000000000000000000000611ab681846134c4565b611ac091906134f1565b6001600160a01b03861660009081526008602090815260409182902082516080810184528154600f81810b8352600160801b909104900b92810192909252600181015492820192909252600290910154606082015290915084611b355760405162461bcd60e51b815260040161088e906133e0565b83851015611b7d5760405162461bcd60e51b81526020600482015260156024820152740ac8a74408892a6869eaa9ca8bea89e9ebe90928e9605b1b604482015260640161088e565b8051600f0b15611bc95760405162461bcd60e51b815260206004820152601760248201527615914e8811561254d5125391d7d313d0d2d7d193d55391604a1b604482015260640161088e565b428211611be85760405162461bcd60e51b815260040161088e90613510565b611c127f000000000000000000000000000000000000000000000000000000000000000042613496565b821115611c315760405162461bcd60e51b815260040161088e90613547565b611c40868686858560016121ea565b50506001805550505050565b600260015403611c6e5760405162461bcd60e51b815260040161088e90613347565b6002600155333214611ca9573360009081526006602052604090205460ff16611ca95760405162461bcd60e51b815260040161088e9061337e565b3360009081526005602052604090205460ff1615611cd95760405162461bcd60e51b815260040161088e906133b5565b60007f0000000000000000000000000000000000000000000000000000000000000000611d0681846134c4565b611d1091906134f1565b3360009081526008602090815260409182902082516080810184528154600f81810b8352600160801b909104900b92810192909252600181015492820192909252600290910154606082015290915083611d7c5760405162461bcd60e51b815260040161088e906133e0565b8051600f0b15611dc85760405162461bcd60e51b815260206004820152601760248201527615914e8811561254d5125391d7d313d0d2d7d193d55391604a1b604482015260640161088e565b428211611de75760405162461bcd60e51b815260040161088e90613510565b611e117f000000000000000000000000000000000000000000000000000000000000000042613496565b821115611e305760405162461bcd60e51b815260040161088e90613547565b6119d633856000858560016121ea565b6009546000818152600a6020908152604080832081516080810183528154600f81810b8352600160801b909104900b93810193909352600181015491830191909152600201546060820152909190611e988185612c82565b949350505050565b6111af600060405180608001604052806000600f0b81526020016000600f0b815260200160008152602001600081525060405180608001604052806000600f0b81526020016000600f0b81526020016000815260200160008152506123ec565b33600090815260086020908152604080832081516080810183528154600f81810b808452600160801b909204900b948201949094526001820154928101929092526002015460608201529112611f685760405162461bcd60e51b815260040161088e9061340b565b42816060015111611f8b5760405162461bcd60e51b815260040161088e90613437565b805160208201516001600160801b039182169116808211611fe55760405162461bcd60e51b815260206004820152601460248201527315914e88119553131657d11254d0d3d55395115160621b604482015260640161088e565b604080516080810182526000808252602080830182815283850183815260608501848152338552600890935294909220925191516001600160801b03908116600160801b02921691909117825591516001820155905160029091015560075461204e8382613211565b600781905550612089338560405180608001604052806000600f0b81526020016000600f0b81526020016000815260200160008152506123ec565b60006120a76120988486613211565b86604001518760600151612de1565b90506120c233826120b88688613211565b610d4d9190613211565b60408051858152602081018390524281830152905133917f49f50fca4a590bc780b00eea7d6be105e57280946507e6075bc777b9645d6d03919081900360600190a27f5e2aa66efd74cce82b21852e317e5490d9ecc9e6bb953ae24d90851258cc2f5c826121308682613211565b6040805192835260208301919091520160405180910390a15050505050565b6000546001600160a01b031633146121795760405162461bcd60e51b815260040161088e90613461565b6001600160a01b0381166121de5760405162461bcd60e51b815260206004820152602660248201527f4f776e61626c653a206e6577206f776e657220697320746865207a65726f206160448201526564647265737360d01b606482015260840161088e565b6121e781612c32565b50565b60075482906121f98782613496565b60075560408051608081018252600080825260208083018281528385018381526060808601948552885193890151968901519089015190945292909252600f93840b90915290910b8152878351849061225390839061357e565b600f0b9052508615612278578683602001818151612271919061357e565b600f0b9052505b8515612295576122884287613211565b6040840152606083018690525b6001600160a01b0389166000908152600860209081526040918290208551918601516001600160801b03908116600160801b02921691909117815590840151600182015560608401516002909101556122ef8982856123ec565b868811156123385761233889306123068a8c613211565b6001600160a01b037f000000000000000000000000000000000000000000000000000000000000000016929190612e2b565b8260600151896001600160a01b03167f082ff60aeac04e11bcd706f6c38626b5c4323c459c49c07581cc1837b37800db8a8a884260405161239594939291909384526020840192909252600f0b6040830152606082015260800190565b60405180910390a37f5e2aa66efd74cce82b21852e317e5490d9ecc9e6bb953ae24d90851258cc2f5c826123c98a82613496565b6040805192835260208301919091520160405180910390a1505050505050505050565b60408051608081018252600080825260208201819052918101829052606081019190915260408051608081018252600080825260208201819052918101829052606081019190915260095460009081906001600160a01b0388161561259c57428760600151118015612465575060008760000151600f0b135b156124c8577f0000000000000000000000000000000000000000000000000000000000000000875161249791906135cd565b600f0b602086015260608701516124b39061078b904290613211565b85602001516124c29190613228565b600f0b85525b4286606001511180156124e2575060008660000151600f0b135b15612545577f0000000000000000000000000000000000000000000000000000000000000000865161251491906135cd565b600f0b602085015260608601516125309061078b904290613211565b846020015161253f9190613228565b600f0b84525b6060808801516000908152600d602052604090205490870151600f9190910b93501561259c5786606001518660600151036125825782915061259c565b60608601516000908152600d6020526040902054600f0b91505b60408051608081018252600080825260208201524291810191909152436060820152811561261157506000818152600a602090815260409182902082516080810184528154600f81810b8352600160801b909104900b9281019290925260018101549282019290925260029091015460608201525b600081604001519050600060405180608001604052808460000151600f0b81526020018460200151600f0b81526020018460400151815260200184606001518152509050600083604001514211156126a05760408401516126729042613211565b60608501516126819043613211565b61269390670de0b6b3a76400006134f1565b61269d91906134c4565b90505b60007f00000000000000000000000000000000000000000000000000000000000000006126cd81866134c4565b6126d791906134f1565b905060005b60ff8110156128735761270f7f000000000000000000000000000000000000000000000000000000000000000083613496565b915060004283111561272357429250612737565b506000828152600d6020526040902054600f0b5b61274461078b8785613211565b87602001516127539190613228565b875188906127629083906132bd565b600f0b90525060208701805182919061277c90839061357e565b600f90810b90915288516000910b1215905061279757600087525b60008760200151600f0b12156127af57600060208801525b60408088018490528501519295508592670de0b6b3a7640000906127d39085613211565b6127dd90866134f1565b6127e791906134c4565b85606001516127f69190613496565b6060880152612806600189613496565b975042830361281b5750436060870152612873565b6000888152600a60209081526040918290208951918a01516001600160801b03908116600160801b0292169190911781559088015160018201556060880151600290910155508061286b816134d8565b9150506126dc565b505060098590556001600160a01b038c1615612907578860200151886020015161289d91906132bd565b846020018181516128ae919061357e565b600f0b905250885188516128c291906132bd565b845185906128d190839061357e565b600f90810b90915260208601516000910b121590506128f257600060208501525b60008460000151600f0b121561290757600084525b6000858152600a60209081526040918290208651918701516001600160801b03908116600160801b02921691909117815590850151600182015560608501516002909101556001600160a01b038c1615612b3457428b6060015111156129c6576020890151612976908861357e565b96508a606001518a606001510361299957602088015161299690886132bd565b96505b60608b01516000908152600d6020526040902080546001600160801b0319166001600160801b0389161790555b428a606001511115612a20578a606001518a606001511115612a205760208801516129f190876132bd565b60608b01516000908152600d6020526040902080546001600160801b0319166001600160801b03831617905595505b6001600160a01b038c166000908152600c6020526040812054612a44906001613496565b905080600c60008f6001600160a01b03166001600160a01b0316815260200190815260200160002081905550428960400181815250504389606001818152505088600b60008f6001600160a01b03166001600160a01b03168152602001908152602001600020600083815260200190815260200160002060008201518160000160006101000a8154816001600160801b030219169083600f0b6001600160801b0316021790555060208201518160000160106101000a8154816001600160801b030219169083600f0b6001600160801b031602179055506040820151816001015560608201518160020155905050505b505050505050505050505050565b6040516001600160a01b038316602482015260448101829052612ba590849063a9059cbb60e01b906064015b60408051601f198184030181529190526020810180516001600160e01b03166001600160e01b031990931692909217909152612e69565b505050565b60008082815b6080811015612c285781831015612c285760006002612bcf8486613496565b612bda906001613496565b612be491906134c4565b6000818152600a60205260409020600201549091508710612c0757809350612c15565b612c12600182613211565b92505b5080612c20816134d8565b915050612bb0565b5090949350505050565b600080546001600160a01b038381166001600160a01b0319831681178455604051919092169283917f8be0079c531659141344cd1fd0a4f28419497f9722a3daafe3b4186f6b6457e09190a35050565b60008083905060007f00000000000000000000000000000000000000000000000000000000000000007f00000000000000000000000000000000000000000000000000000000000000008360400151612cdb91906134c4565b612ce591906134f1565b905060005b60ff811015612dbb57612d1d7f000000000000000000000000000000000000000000000000000000000000000083613496565b9150600085831115612d3157859250612d45565b506000828152600d6020526040902054600f0b5b612d5884604001518461078b9190613211565b8460200151612d679190613228565b84518590612d769083906132bd565b600f0b905250858303612d895750612dbb565b8084602001818151612d9b919061357e565b600f0b905250506040830182905280612db3816134d8565b915050612cea565b5060008260000151600f0b1215612dd157600082525b81516001600160801b03166107d3565b600082612dee4284613211565b612df890866134f1565b612e0291906134c4565b9050612e0f6002856134c4565b811015612e2457612e216002856134c4565b90505b9392505050565b6040516001600160a01b0380851660248301528316604482015260648101829052612e639085906323b872dd60e01b90608401612b6e565b50505050565b6000612ebe826040518060400160405280602081526020017f5361666545524332303a206c6f772d6c6576656c2063616c6c206661696c6564815250856001600160a01b0316612f3b9092919063ffffffff16565b805190915015612ba55780806020019051810190612edc919061360b565b612ba55760405162461bcd60e51b815260206004820152602a60248201527f5361666545524332303a204552433230206f7065726174696f6e20646964206e6044820152691bdd081cdd58d8d9595960b21b606482015260840161088e565b6060612e218484600085856001600160a01b0385163b612f9d5760405162461bcd60e51b815260206004820152601d60248201527f416464726573733a2063616c6c20746f206e6f6e2d636f6e7472616374000000604482015260640161088e565b600080866001600160a01b03168587604051612fb99190613628565b60006040518083038185875af1925050503d8060008114612ff6576040519150601f19603f3d011682016040523d82523d6000602084013e612ffb565b606091505b509150915061300b828286613016565b979650505050505050565b60608315613025575081612e24565b8251156130355782518084602001fd5b8160405162461bcd60e51b815260040161088e91906130c1565b80356001600160a01b038116811461306657600080fd5b919050565b6000806040838503121561307e57600080fd5b6130878361304f565b946020939093013593505050565b60005b838110156130b0578181015183820152602001613098565b83811115612e635750506000910152565b60208152600082518060208401526130e0816040850160208701613095565b601f01601f19169190910160400192915050565b60006020828403121561310657600080fd5b612e248261304f565b60006020828403121561312157600080fd5b5035919050565b80151581146121e757600080fd5b6000806040838503121561314957600080fd5b6131528361304f565b9150602083013561316281613128565b809150509250929050565b60008060006060848603121561318257600080fd5b61318b8461304f565b95602085013595506040909401359392505050565b600080600080608085870312156131b657600080fd5b6131bf8561304f565b966020860135965060408601359560600135945092505050565b600080604083850312156131ec57600080fd5b50508035926020909101359150565b634e487b7160e01b600052601160045260246000fd5b600082821015613223576132236131fb565b500390565b600081600f0b83600f0b60016001607f1b03600082136000841383830485118282161615613258576132586131fb565b60016001607f1b0319600085128281168783058712161561327b5761327b6131fb565b60008712925085820587128484161615613297576132976131fb565b858505871281841616156132ad576132ad6131fb565b5050509290910295945050505050565b600081600f0b83600f0b600081128160016001607f1b0319018312811516156132e8576132e86131fb565b8160016001607f1b03018313811615613303576133036131fb565b5090039392505050565b600181811c9082168061332157607f821691505b60208210810361334157634e487b7160e01b600052602260045260246000fd5b50919050565b6020808252601f908201527f5265656e7472616e637947756172643a207265656e7472616e742063616c6c00604082015260600190565b60208082526019908201527f56453a20434f4e54524143545f4e4f545f44454c454741544500000000000000604082015260600190565b60208082526011908201527015914e881313d0d2d7d35251d490551151607a1b604082015260600190565b60208082526011908201527056453a20494e56414c49445f56414c554560781b604082015260600190565b60208082526012908201527115914e881313d0d2d7d393d517d193d5539160721b604082015260600190565b60208082526010908201526f15914e881313d0d2d7d156141254915160821b604082015260600190565b6020808252818101527f4f776e61626c653a2063616c6c6572206973206e6f7420746865206f776e6572604082015260600190565b600082198211156134a9576134a96131fb565b500190565b634e487b7160e01b600052601260045260246000fd5b6000826134d3576134d36134ae565b500490565b6000600182016134ea576134ea6131fb565b5060010190565b600081600019048311821515161561350b5761350b6131fb565b500290565b60208082526019908201527f56453a20554e4c4f434b5f54494d455f544f4f5f4541524c5900000000000000604082015260600190565b60208082526018908201527f56453a20554e4c4f434b5f54494d455f544f4f5f4c4154450000000000000000604082015260600190565b600081600f0b83600f0b600082128260016001607f1b03038213811516156135a8576135a86131fb565b8260016001607f1b03190382128116156135c4576135c46131fb565b50019392505050565b600081600f0b83600f0b806135e4576135e46134ae565b60016001607f1b0319821460001982141615613602576136026131fb565b90059392505050565b60006020828403121561361d57600080fd5b8151612e2481613128565b6000825161363a818460208701613095565b919091019291505056fea2646970667358221220da0cb3dcabcaf701f1ac561ebdeda1b64d1d65a89c64ae96de2d7e20f7b08ee864736f6c634300080e0033",
  "devdoc": {
    "author": "LevX (team@levx.io)",
    "details": "Vote weight decays linearly over time. Lock time cannot be      more than `MAXTIME`.Ported from vyper (https://github.com/curvefi/curve-dao-contracts/blob/master/contracts/VotingEscrow.vy)",
    "kind": "dev",
    "methods": {
      "balanceOf(address,uint256)": {
        "details": "Adheres to the ERC20 `balanceOf` interface for Aragon compatibility",
        "params": {
          "_t": "Epoch time to return voting power at",
          "addr": "User wallet address"
        },
        "returns": {
          "_0": "User voting power"
        }
      },
      "balanceOfAt(address,uint256)": {
        "details": "Adheres to MiniMe `balanceOfAt` interface: https://github.com/Giveth/minime",
        "params": {
          "_block": "Block to calculate the voting power at",
          "addr": "User's wallet address"
        },
        "returns": {
          "_0": "Voting power"
        }
      },
      "cancel()": {
        "details": "Only possible if the lock exists"
      },
      "createLock(uint256,uint256)": {
        "params": {
          "_unlock_time": "Epoch time when tokens unlock, rounded down to whole weeks",
          "_value": "Amount to deposit"
        }
      },
      "createLockFor(address,uint256,uint256,uint256)": {
        "details": "Only delegates can creat a lock for someone else",
        "params": {
          "_addr": "User's wallet address",
          "_discount": "Amount to get discounted out of _value",
          "_unlock_time": "Epoch time when tokens unlock, rounded down to whole weeks",
          "_value": "Amount to add to user's lock"
        }
      },
      "depositFor(address,uint256)": {
        "details": "Anyone (even a smart contract) can deposit for someone else, but      cannot extend their locktime and deposit for a brand new user",
        "params": {
          "_addr": "User's wallet address",
          "_value": "Amount to add to user's lock"
        }
      },
      "getCheckpointTime(address,uint256)": {
        "params": {
          "_addr": "User wallet address",
          "_idx": "User epoch number"
        },
        "returns": {
          "_0": "Epoch time of the checkpoint"
        }
      },
      "getLastUserSlope(address)": {
        "params": {
          "addr": "Address of the user wallet"
        },
        "returns": {
          "_0": "Value of the slope"
        }
      },
      "increaseAmount(uint256)": {
        "params": {
          "_value": "Amount of tokens to deposit and add to the lock"
        }
      },
      "increaseAmountFor(address,uint256,uint256)": {
        "params": {
          "_addr": "User's wallet address",
          "_discount": "Amount to get discounted out of _value",
          "_value": "Amount of tokens to deposit and add to the lock"
        }
      },
      "increaseUnlockTime(uint256)": {
        "params": {
          "_unlock_time": "New epoch time for unlocking"
        }
      },
      "owner()": {
        "details": "Returns the address of the current owner."
      },
      "renounceOwnership()": {
        "details": "Leaves the contract without owner. It will not be possible to call `onlyOwner` functions anymore. Can only be called by the current owner. NOTE: Renouncing ownership will leave the contract without an owner, thereby removing any functionality that is only available to the owner."
      },
      "totalSupply(uint256)": {
        "details": "Adheres to the ERC20 `totalSupply` interface for Aragon compatibility",
        "returns": {
          "_0": "Total voting power"
        }
      },
      "totalSupplyAt(uint256)": {
        "params": {
          "_block": "Block to calculate the total voting power at"
        },
        "returns": {
          "_0": "Total voting power at `_block`"
        }
      },
      "transferOwnership(address)": {
        "details": "Transfers ownership of the contract to a new account (`newOwner`). Can only be called by the current owner."
      },
      "unlockTime(address)": {
        "params": {
          "_addr": "User wallet"
        },
        "returns": {
          "_0": "Epoch time of the lock end"
        }
      },
      "withdraw()": {
        "details": "Only possible if the lock has expired"
      }
    },
    "title": "Voting Escrow",
    "version": 1
  },
  "userdoc": {
    "kind": "user",
    "methods": {
      "balanceOf(address,uint256)": {
        "notice": "Get the current voting power for `msg.sender`"
      },
      "balanceOfAt(address,uint256)": {
        "notice": "Measure voting power of `addr` at block height `_block`"
      },
      "cancel()": {
        "notice": "Cancel the existing lock of `msg.sender` with penalty"
      },
      "checkpoint()": {
        "notice": "Record global data to checkpoint"
      },
      "createLock(uint256,uint256)": {
        "notice": "Deposit `_value` tokens for `msg.sender` and lock until `_unlock_time`"
      },
      "createLockFor(address,uint256,uint256,uint256)": {
        "notice": "Deposit `_value` tokens with `_discount` for `_addr` and lock until `_unlock_time`"
      },
      "depositFor(address,uint256)": {
        "notice": "Deposit `_value` tokens for `_addr` and add to the lock"
      },
      "getCheckpointTime(address,uint256)": {
        "notice": "Get the timestamp for checkpoint `_idx` for `_addr`"
      },
      "getLastUserSlope(address)": {
        "notice": "Get the most recently recorded rate of voting power decrease for `addr`"
      },
      "increaseAmount(uint256)": {
        "notice": "Deposit `_value` additional tokens for `msg.sender`          without modifying the unlock time"
      },
      "increaseAmountFor(address,uint256,uint256)": {
        "notice": "Deposit `_value` additional tokens for `msg.sender`          without modifying the unlock time"
      },
      "increaseUnlockTime(uint256)": {
        "notice": "Extend the unlock time for `msg.sender` to `_unlock_time`"
      },
      "totalSupply(uint256)": {
        "notice": "Calculate total voting power"
      },
      "totalSupplyAt(uint256)": {
        "notice": "Calculate total voting power at some point in the past"
      },
      "unlockTime(address)": {
        "notice": "Get timestamp when `_addr`'s lock finishes"
      },
      "withdraw()": {
        "notice": "Withdraw all tokens for `msg.sender`"
      }
    },
    "notice": "Votes have a weight depending on time, so that users are         committed to the future of (whatever they are voting for)",
    "version": 1
  },
  "storageLayout": {
    "storage": [
      {
        "astId": 7,
        "contract": "contracts/VotingEscrow.sol:VotingEscrow",
        "label": "_owner",
        "offset": 0,
        "slot": "0",
        "type": "t_address"
      },
      {
        "astId": 115,
        "contract": "contracts/VotingEscrow.sol:VotingEscrow",
        "label": "_status",
        "offset": 0,
        "slot": "1",
        "type": "t_uint256"
      },
      {
        "astId": 3184,
        "contract": "contracts/VotingEscrow.sol:VotingEscrow",
        "label": "name",
        "offset": 0,
        "slot": "2",
        "type": "t_string_storage"
      },
      {
        "astId": 3187,
        "contract": "contracts/VotingEscrow.sol:VotingEscrow",
        "label": "symbol",
        "offset": 0,
        "slot": "3",
        "type": "t_string_storage"
      },
      {
        "astId": 3193,
        "contract": "contracts/VotingEscrow.sol:VotingEscrow",
        "label": "migrator",
        "offset": 0,
        "slot": "4",
        "type": "t_address"
      },
      {
        "astId": 3198,
        "contract": "contracts/VotingEscrow.sol:VotingEscrow",
        "label": "migrated",
        "offset": 0,
        "slot": "5",
        "type": "t_mapping(t_address,t_bool)"
      },
      {
        "astId": 3203,
        "contract": "contracts/VotingEscrow.sol:VotingEscrow",
        "label": "isDelegate",
        "offset": 0,
        "slot": "6",
        "type": "t_mapping(t_address,t_bool)"
      },
      {
        "astId": 3206,
        "contract": "contracts/VotingEscrow.sol:VotingEscrow",
        "label": "supply",
        "offset": 0,
        "slot": "7",
        "type": "t_uint256"
      },
      {
        "astId": 3212,
        "contract": "contracts/VotingEscrow.sol:VotingEscrow",
        "label": "locked",
        "offset": 0,
        "slot": "8",
        "type": "t_mapping(t_address,t_struct(LockedBalance)3157_storage)"
      },
      {
        "astId": 3215,
        "contract": "contracts/VotingEscrow.sol:VotingEscrow",
        "label": "epoch",
        "offset": 0,
        "slot": "9",
        "type": "t_uint256"
      },
      {
        "astId": 3221,
        "contract": "contracts/VotingEscrow.sol:VotingEscrow",
        "label": "pointHistory",
        "offset": 0,
        "slot": "10",
        "type": "t_mapping(t_uint256,t_struct(Point)3148_storage)"
      },
      {
        "astId": 3229,
        "contract": "contracts/VotingEscrow.sol:VotingEscrow",
        "label": "userPointHistory",
        "offset": 0,
        "slot": "11",
        "type": "t_mapping(t_address,t_mapping(t_uint256,t_struct(Point)3148_storage))"
      },
      {
        "astId": 3234,
        "contract": "contracts/VotingEscrow.sol:VotingEscrow",
        "label": "userPointEpoch",
        "offset": 0,
        "slot": "12",
        "type": "t_mapping(t_address,t_uint256)"
      },
      {
        "astId": 3239,
        "contract": "contracts/VotingEscrow.sol:VotingEscrow",
        "label": "slopeChanges",
        "offset": 0,
        "slot": "13",
        "type": "t_mapping(t_uint256,t_int128)"
      }
    ],
    "types": {
      "t_address": {
        "encoding": "inplace",
        "label": "address",
        "numberOfBytes": "20"
      },
      "t_bool": {
        "encoding": "inplace",
        "label": "bool",
        "numberOfBytes": "1"
      },
      "t_int128": {
        "encoding": "inplace",
        "label": "int128",
        "numberOfBytes": "16"
      },
      "t_mapping(t_address,t_bool)": {
        "encoding": "mapping",
        "key": "t_address",
        "label": "mapping(address => bool)",
        "numberOfBytes": "32",
        "value": "t_bool"
      },
      "t_mapping(t_address,t_mapping(t_uint256,t_struct(Point)3148_storage))": {
        "encoding": "mapping",
        "key": "t_address",
        "label": "mapping(address => mapping(uint256 => struct VotingEscrow.Point))",
        "numberOfBytes": "32",
        "value": "t_mapping(t_uint256,t_struct(Point)3148_storage)"
      },
      "t_mapping(t_address,t_struct(LockedBalance)3157_storage)": {
        "encoding": "mapping",
        "key": "t_address",
        "label": "mapping(address => struct VotingEscrow.LockedBalance)",
        "numberOfBytes": "32",
        "value": "t_struct(LockedBalance)3157_storage"
      },
      "t_mapping(t_address,t_uint256)": {
        "encoding": "mapping",
        "key": "t_address",
        "label": "mapping(address => uint256)",
        "numberOfBytes": "32",
        "value": "t_uint256"
      },
      "t_mapping(t_uint256,t_int128)": {
        "encoding": "mapping",
        "key": "t_uint256",
        "label": "mapping(uint256 => int128)",
        "numberOfBytes": "32",
        "value": "t_int128"
      },
      "t_mapping(t_uint256,t_struct(Point)3148_storage)": {
        "encoding": "mapping",
        "key": "t_uint256",
        "label": "mapping(uint256 => struct VotingEscrow.Point)",
        "numberOfBytes": "32",
        "value": "t_struct(Point)3148_storage"
      },
      "t_string_storage": {
        "encoding": "bytes",
        "label": "string",
        "numberOfBytes": "32"
      },
      "t_struct(LockedBalance)3157_storage": {
        "encoding": "inplace",
        "label": "struct VotingEscrow.LockedBalance",
        "members": [
          {
            "astId": 3150,
            "contract": "contracts/VotingEscrow.sol:VotingEscrow",
            "label": "amount",
            "offset": 0,
            "slot": "0",
            "type": "t_int128"
          },
          {
            "astId": 3152,
            "contract": "contracts/VotingEscrow.sol:VotingEscrow",
            "label": "discount",
            "offset": 16,
            "slot": "0",
            "type": "t_int128"
          },
          {
            "astId": 3154,
            "contract": "contracts/VotingEscrow.sol:VotingEscrow",
            "label": "duration",
            "offset": 0,
            "slot": "1",
            "type": "t_uint256"
          },
          {
            "astId": 3156,
            "contract": "contracts/VotingEscrow.sol:VotingEscrow",
            "label": "end",
            "offset": 0,
            "slot": "2",
            "type": "t_uint256"
          }
        ],
        "numberOfBytes": "96"
      },
      "t_struct(Point)3148_storage": {
        "encoding": "inplace",
        "label": "struct VotingEscrow.Point",
        "members": [
          {
            "astId": 3141,
            "contract": "contracts/VotingEscrow.sol:VotingEscrow",
            "label": "bias",
            "offset": 0,
            "slot": "0",
            "type": "t_int128"
          },
          {
            "astId": 3143,
            "contract": "contracts/VotingEscrow.sol:VotingEscrow",
            "label": "slope",
            "offset": 16,
            "slot": "0",
            "type": "t_int128"
          },
          {
            "astId": 3145,
            "contract": "contracts/VotingEscrow.sol:VotingEscrow",
            "label": "ts",
            "offset": 0,
            "slot": "1",
            "type": "t_uint256"
          },
          {
            "astId": 3147,
            "contract": "contracts/VotingEscrow.sol:VotingEscrow",
            "label": "blk",
            "offset": 0,
            "slot": "2",
            "type": "t_uint256"
          }
        ],
        "numberOfBytes": "96"
      },
      "t_uint256": {
        "encoding": "inplace",
        "label": "uint256",
        "numberOfBytes": "32"
      }
    }
  }
}